:1000000002C100002DC100002BC1000029C1000069
:1000100027C1000025C1000023C1000021C100004C
:100020001FC100001DC100001BC1000019C100005C
:1000300017C1000015C1000013C1000011C100006C
:100040000FC100000DC100000BC1000009C100007C
:1000500007C1000005C1000003C100000C948C1111
:10006000FFC000000C946A140C94AE15F9C0000097
:10007000F7C00000F5C00000F3C00000F1C00000B0
:10008000EFC00000EDC00000EBC00000E9C00000C0
:100090000C94AA140C94ED15E3C00000E1C000001C
:1000A000DFC00000DDC00000DBC00000D9C00000E0
:1000B000D7C00000D5C00000D3C00000D1C00000F0
:1000C000CFC00000CDC00000CBC000000C94E914EC
:1000D0000C942C16C5C000000C9429150C946B16BA
:1000E000BFC0000000002100240027002A002D00CE
:1000F0003000330001010000040107010A01000083
:100100002200250028002B002E00310034000201BF
:100110000000050108010B0100002000230026005B
:1001200029002C002F00320000010000030106010D
:10013000090105050505070508080808020202026D
:100140000A0A080804040404010101010101010173
:100150000303030303030303040707070C0C0C0C3E
:100160000C0C0C0C02020202060606060606060627
:100170000B0B0B0B0B0B0B0B0102102020080810B4
:100180002040102040800201020108040201010207
:1001900004081020408080402010080402018004E0
:1001A000020180402010080402010804020101023B
:1001B0000408102040800102040810204080000044
:1001C000090A02080B0C0D070603040100000000D9
:1001D000000000000000000000000000000000001F
:1001E0000000000000000000000011100F000000DF
:1001F00000000000000000000000000000000000FF
:1002000000000000CD1811241FBECFEFD1E2DEBFE9
:10021000CDBF00E00CBF13E0A0E0B2E0E8E1F3E402
:1002200000E00BBF02C007900D92A03AB107D9F7CA
:100230001BBE18E0A0EAB3E001C01D92A039B107CF
:10024000E1F712E0C6E0D2E004C02297FE010E946E
:100250008621C430D107C9F70E94031A0C948A2161
:10026000CFCEFB01DC0102C001900D924150504005
:10027000D8F70895FB01DC0101900D920020E1F711
:1002800008958091CB048093CB058091CC0480931A
:10029000CC058091CD048093CD058091CE048093D0
:1002A000CE058091CF048093CF058091D0048093B8
:1002B000D0058091D1048093D1058091D2048093A0
:1002C000D2058091D3048093D3051092D4059091E8
:1002D000D50480E02091D604820F911D9093D6051D
:1002E0008093D5059091D70480E02091D804820FA7
:1002F000911D9093D8058093D7059091D90480E003
:100300002091DA04820F911D9093DA058093D9052C
:100310009091DD0480E02091DE04820F911D909386
:10032000DC058093DB05089590E0049633E0880FA8
:10033000991F3A95E1F78EBD0DB407FEFDCF8EB53E
:100340007EBD0DB407FEFDCF8EB56EBD0DB407FEAC
:10035000FDCF8EB51EBC0DB407FEFDCF8EB5089542
:10036000CF92DF92EF92FF920F931F93CF93DF9381
:100370007C01C091C904D091CA04CC0FDD1F00E0FC
:1003800010E040EAC42EDD24DA941BC0CEBC0DB4CC
:1003900007FEFDCF8EB5DEBD0DB407FEFDCF8EB5D9
:1003A000CEBD0DB407FEFDCF8EB5DEBC0DB407FE8D
:1003B000FDCF6EB586E098E00E943A1A0F5F1F4F9E
:1003C00021960E151F0514F380E1DF91CF911F9147
:1003D0000F91FF90EF90DF90CF9008950F931F93B0
:1003E000CF93DF938C01C0E0D0E020C06091C904BE
:1003F0007091CA0480E098DF682F86E098E00E9440
:100400003A1A6091C9047091CA0481E08DDF682FA7
:1004100086E098E00E943A1A8091C9049091CA043B
:1004200001969093CA048093C9042296C017D107FD
:10043000ECF280E1DF91CF911F910F91089582E35B
:1004400060E00E94851383E360E00E94851384E3EB
:1004500060E00E9485138AE060E00E94851310929C
:10046000C8041092C704089583E58CBD8DB58EB580
:100470008AE061E00E9485138AE061E00E943814FE
:1004800084E361E00E94851384E360E00E943814F5
:1004900062E370E080E090E00E94E2118AE060E0B8
:1004A0000E94381462E370E080E090E00E94E21164
:1004B00082E360E00E94851383E361E00E9485137C
:1004C0008CEA8EBD0DB407FEFDCF8EB583E58EBDE3
:1004D0000DB407FEFDCF8EB51EBC0DB407FEFDCFDB
:1004E0008EB51EBC0DB407FEFDCF8EB581E090E049
:1004F0009093C8048093C7040895682F80E20C94F9
:1005000038140F931F938C0180E090E0F6DF8CE4A9
:100510008EBD0DB407FEFDCF8EB51EBD0DB407FE1A
:10052000FDCF8EB50EBD0DB407FEFDCF8EB51EBC42
:100530000DB407FEFDCF8EB56EE170E080E090E077
:100540000E94E21181E090E0D8DF1F910F910895A1
:10055000CF92DF92EF92FF920F931F93CF93DF938F
:100560007C018091D7059091D8058032910531F4B6
:100570008091C9049091CA04807F11C08034910594
:1005800031F48091C9049091CA04807E08C08038FB
:10059000910571F48091C9049091CA04807CCBECE0
:1005A000D4E000E010E070E4C72E68E4D62E9AC0D4
:1005B0002091C9043091CA048050914019F4C901B6
:1005C0008078EDCFC901EBCF4091D7055091D80588
:1005D0004032510531F42091C9043091CA04207F82
:1005E0001AC04034510531F42091C9043091CA0435
:1005F000207E11C04038510531F42091C90430915A
:10060000CA04207C08C02091C9043091CA0440501B
:10061000514009F420788217930759F172DF8091D5
:10062000D7059091D8058032910531F48091C904A5
:100630009091CA04807F1DC08034910531F480916F
:10064000C9049091CA04807E14C08038910531F4A9
:100650008091C9049091CA04807C0BC02091C90488
:100660003091CA048050914019F4C901807801C0CA
:10067000C9012091C9043091CA044881532F622FC7
:10068000CEBC0DB407FEFDCF7EB55EBD0DB407FE3A
:10069000FDCF7EB56EBD0DB407FEFDCF7EB54EBD60
:1006A0000DB407FEFDCF4EB54981DEBC0DB407FE8B
:1006B000FDCF7EB55EBD0DB407FEFDCF5EB56EBD50
:1006C0000DB407FEFDCF5EB54EBD0DB407FEFDCFE8
:1006D0000E5F1F4F4EB52F5F3F4F3093CA042093DC
:1006E000C90422960E151F050CF46ECF0ADF80E1B7
:1006F000DF91CF911F910F91FF90EF90DF90CF90FE
:1007000008951F93CF93DF93182FEB01812F61E0A2
:100710000E9438146EE170E080E090E00E94E211E7
:10072000812F60E00E9438146EE170E080E090E07C
:100730000E94E21121978FEFCF3FD80739F7DF9161
:10074000CF911F910895FF920F931F93CF93DF9343
:10075000182F062FF42EE901F901E957FC4F80818B
:1007600060E00E94381485E08EBD0DB407FEFDCF19
:100770008EB51EBD0DB407FEFDCF8EB50EBD0DB4FA
:1007800007FEFDCF8EB5FEBC0DB407FEFDCF8EB5C6
:10079000C957DC4F888161E00E943814DF91CF9106
:1007A0001F910F91FF9008959B01482F4295440F90
:1007B000407E8FE060EEC7CFEF92FF920F931F93C2
:1007C000CF93DF93F82E8B01E42EE901F901E9576D
:1007D000FC4F808160E00E94381482E08EBD0DB431
:1007E00007FEFDCF8EB5FEBC0DB407FEFDCF8EB566
:1007F00020E030E04E2D50E00BC0F801E20FF31F77
:1008000080818EBD0DB407FEFDCF8EB52F5F3F4FAB
:100810002417350794F3C957DC4F888161E00E94A3
:100820003814DF91CF911F910F91FF90EF900895B1
:10083000CF92DF92EF92FF920F931F93DF93CF93AC
:1008400000D00F92CDB7DEB76A017B01682F660F2B
:10085000660F6C3008F06C5F222311F1D701C601DE
:1008600035E1B695A795979587953A95D1F7898300
:10087000D701C6012DE0B695A795979587952A953E
:10088000D1F7807E9701442755272370822B8860FB
:100890008A83BB27AF2D9E2D8D2D8B83CC8211C0DB
:1008A000D701C601E3E0B695A79597958795EA9598
:1008B000D1F789838C2D8295880F807E8A831B8255
:1008C0001C82862FBE016F5F7F4F44E0980174DF6A
:1008D0000F900F900F900F90CF91DF911F910F917C
:1008E000FF90EF90DF90CF900895CF92DF92EF923C
:1008F000FF920F931F93DF93CF9300D00F92CDB74A
:10090000DEB76A017B01882311F064E201C060E276
:10091000222309F1D701C601F5E1B695A795979570
:100920008795FA95D1F78983970144275527237036
:10093000D701C6017DE0B695A795979587957A95DD
:10094000D1F7807E282B2A83BB27AF2D9E2D8D2D9E
:100950008B83CC8211C0D701C60143E0B695A79521
:10096000979587954A95D1F789838C2D8295880F25
:10097000807E8A831B821C82862FBE016F5F7F4F21
:1009800044E0980119DF0F900F900F900F90CF91D6
:10099000DF911F910F91FF90EF90DF90CF9008951E
:1009A000CF92DF92EF92FF920F931F93DF93CF933B
:1009B00000D00F920F92CDB7DEB76C018091680422
:1009C000882351F1E0906B04F0906C0400916D0469
:1009D00010916E04D801C70135E1B695A79597959A
:1009E00087953A95D1F78983D801C7012DE0B6954F
:1009F000A795979587952A95D1F7807E98014427EA
:100A000055272370822B88608A83BB27A12F902FC4
:100A10008F2D8B83EC8216C080916B0490916C04B7
:100A2000A0916D04B0916E049C01AD0173E05695E8
:100A30004795379527957A95D1F729838295880F21
:100A4000807E8A8380917704893018F088E08093D3
:100A50007704809177048D83162F1295107F105D97
:100A6000812F8160BE016F5F7F4F45E09601A4DE5C
:100A7000812F86606DE774E04091770496019CDEDB
:100A8000812F68E048E096015EDE0F900F900F9096
:100A90000F900F90CF91DF911F910F91FF90EF90EA
:100AA000DF90CF900895EF92FF920F931F93CF9313
:100AB000DF93F82E8B01E42EE901F901E957FC4F91
:100AC000808160E00E94381483E08EBD0DB407FE83
:100AD000FDCF8EB5FEBC0DB407FEFDCF8EB520E078
:100AE00030E04E2D50E00BC01EBC0DB407FEFDCF14
:100AF0008EB5F801E20FF31F80832F5F3F4F24175D
:100B0000350794F3C957DC4F888161E00E9438149F
:100B1000DF91CF911F910F91FF90EF900895BF92B9
:100B2000CF92DF92EF92FF920F931F93DF93CF93B9
:100B300000D00F920F92CDB7DEB76C01B62E162FF4
:100B40001295107F105A812F8160BE016F5F7F4F19
:100B500045E09601A8DF8D81282F2F70D601A95876
:100B6000BB4F2C93F601E658FB4F90E006E09595BD
:100B700087950A95E1F781708083293010F088E02D
:100B80008C93B601B3E0660F771FBA95E1F763580F
:100B90007B4FF601E958FB4F812F8660408196011B
:100BA00082DF8A81982F9870F601E859FB4F908375
:100BB000E82EFF2400E010E0F601EE0FFF1FEE0F1D
:100BC000FF1F2981992309F445C0E559FB4F30E007
:100BD00040E050E075E1220F331F441F551F7A9506
:100BE000D1F78B8190E0A0E0B0E0BA2FA92F982F29
:100BF0008827282B392B4A2B5B2B8C8190E0A0E097
:100C0000B0E0282B392B4A2B5B2BD801C701807E03
:100C10009070A070B0707DE0880F991FAA1FBB1F55
:100C20007A95D1F7282B392B4A2B5B2B83E090E068
:100C3000A0E0B0E0E822F9220A231B23D70199277C
:100C40008827282B392B4A2B5B2B20833183428327
:100C500053831CC0E559FB4F55E016950795F79453
:100C6000E7945A95D1F7822F90E0A0E0B0E043E0FE
:100C7000880F991FAA1FBB1F4A95D1F7E82AF92AA6
:100C80000A2B1B2BE082F1820283138361E070E068
:100C900002C0660F771FBA94E2F78CE240E096013B
:100CA00052DD0F900F900F900F900F90CF91DF912A
:100CB0001F910F91FF90EF90DF90CF90BF9008951C
:100CC0001F93DF93CF930F92CDB7DEB79C01162F02
:100CD0008CE2BE016F5F7F4F41E0E5DE898190E0ED
:100CE00002C0959587951A95E2F781700F90CF9184
:100CF000DF911F9108950F931F93CF93DF93182FC8
:100D0000062FEA01FA01E957FC4F808160E00E945A
:100D1000381482E08EBD0DB407FEFDCF8EB51EBD2A
:100D20000DB407FEFDCF8EB50EBD0DB407FEFDCF91
:100D30008EB5C957DC4F888161E00E943814DF917D
:100D4000CF911F910F9108952F923F924F925F92F2
:100D50006F927F928F929F92AF92BF92CF92DF92CB
:100D6000EF92FF920F931F93DF93CF9300D00F92D8
:100D70000F92CDB7DEB77B018C014A83390125E3A1
:100D80003CE040E050E00E946221D22EC32EC80118
:100D9000B70121E732E040E050E00E946221A90162
:100DA00019014034510518F04FE3242E312CC801AD
:100DB000B7012DE730E040E050E00E946221790168
:100DC0008A012D2D3C2DC9018034910510F08FE34F
:100DD00090E0882E3FE3532E41C0CB0101969D83C6
:100DE0008C835C01CC24B7FCC094DC2CC801B70117
:100DF000A60195010E946221962E662341F4C80146
:100E0000B701A60195010E946221422E2EC0262F15
:100E100030E08C819D81821B930B821793072CF409
:100E20008394982D9919992E8A94951410F0952CE5
:100E300013C0EC81FD81F595E795BF01882777FD0B
:100E40008095982F6E0D7F1D801F911FA601950123
:100E50000E946221422E89828394592C682D70E071
:100E60002616370608F0B9CF8980F4E0F41510F0A3
:100E700095E0492E842D90E0019663E070E00E9499
:100E80004F21F62E942D961B092F06958AE2682D88
:100E9000A3019B8330DF9B819250901B906810E0F0
:100EA0000150104083E0000F111F8A95E1F7902B4D
:100EB00089E2692FA3011FDFFA9488E26F2DA30155
:100EC0001ADF80E660E0A30116DF2A81220F220FDD
:100ED000220F8FE068E0422F930135DC80E360E071
:100EE000A30109DF80E460E0A30105DF80E560E0A5
:100EF000A30101DF80E040E050E060E070E020917D
:100F00006804830195DC81E040E050E060E070E03F
:100F1000209168048DDC82E040E050E060E070E009
:100F20002091680485DC83E040E050E060E070E000
:100F3000209168047DDC84E040E050E060E070E0F7
:100F40002091680475DC85E040E050E060E070E0EE
:100F5000209168046DDC80E040E050E060E070E0EB
:100F600020916804C2DC81E040E050E060E070E085
:100F700020916804BADC0F900F900F900F900F90A3
:100F8000CF91DF911F910F91FF90EF90DF90CF9065
:100F9000BF90AF909F908F907F906F905F904F9099
:100FA0003F902F9008958091850487FF03C087E0CC
:100FB00061E002C087E060E00C94381486E098E0BD
:100FC0000E942318892BD1F386E098E00C945418E2
:100FD000F5DF803269F08091C5049091C6040196D6
:100FE0009093C6048093C50486E098E065E155C0FF
:100FF00086E098E064E10E943A1A80E38EBD0DB469
:1010000007FEFDCF8EB51EBC0DB407FEFDCF8EB51D
:101010001EBC0DB407FEFDCF8EB51EBC0DB407FE81
:10102000FDCF6EB586E098E00E943A1A80E38EBD4F
:101030000DB407FEFDCF8EB51EBC0DB407FEFDCF6F
:101040008EB581E08EBD0DB407FEFDCF8EB51EBC02
:101050000DB407FEFDCF6EB586E098E00E943A1A07
:1010600080E38EBD0DB407FEFDCF8EB51EBC0DB462
:1010700007FEFDCF8EB582E08EBD0DB407FEFDCF1D
:101080008EB51EBC0DB407FEFDCF6EB586E098E0B0
:101090000E943A1A86E098E060E10C943A1AFF92B6
:1010A0000F931F93CF93DF9389DFF82E87DF082FED
:1010B00085DF182F83DF803269F08091C50490911D
:1010C000C60401969093C6048093C50486E098E018
:1010D00065E118C09F2D80E0EC01C00FD11D86E0B6
:1010E00098E064E10E943A1A163419F4CE0176D9D8
:1010F00006C0153411F061E103C0CE0131D9682F6B
:1011000086E098E00E943A1ADF91CF911F910F91EB
:10111000FF9008951F93182F51DF803271F486E0FD
:1011200098E064E10E943A1A86E098E0612F0E94FC
:101130003A1A86E098E060E10CC08091C504909175
:10114000C60401969093C6048093C50486E098E097
:1011500065E10E943A1A1F910895813861F0823842
:1011600018F4803871F405C0823839F0833949F4B5
:1011700006C082E007C081E005C082E103C083E5CC
:1011800001C080E0C7CF1ADF803249F486E098E0E2
:1011900064E10E943A1A86E098E060E10CC0809118
:1011A000C5049091C60401969093C6048093C5042B
:1011B00086E098E065E10C943A1A0F931F93CF9361
:1011C000DF938C01C0E0D0E006C0F8DEFE01E553FD
:1011D000FB4F80832196C017D107BCF3DF91CF91DD
:1011E0001F910F910895DF92EF92FF920F931F933B
:1011F000CF93DF93182F092F7B01CB01DEDF80E037
:1012000090E07BD9212F302FC901EC0100E010E0E4
:1012100060ECD62E21C0F801E553FB4FE081DEBC27
:101220000DB407FEFDCF8EB5DEBD0DB407FEFDCFBC
:101230008EB5CEBD0DB407FEFDCF8EB5EEBD0DB49F
:1012400007FEFDCF8EB56DE270E080E090E00E9479
:10125000E2110F5F1F4F21960E151F05E4F281E08A
:1012600090E04BD980E1DF91CF911F910F91FF90DA
:10127000EF90DF9008950F931F93CF93DF93BC01FE
:101280002091C9043091CA048091D9059091DA0562
:10129000861797072CF08901000F111FEB0112C070
:1012A0008091C5049091C60401969093C6048093E2
:1012B000C50481E10EC0C80160E270E094DF005E09
:1012C0001F4FA097C132D105B4F7C801BE018BDF13
:1012D00080E1DF91CF911F910F91089584E090E01C
:1012E0006CDF8091CB049091CC042091CD0430919F
:1012F000CE048EBD0DB407FEFDCF8EB59EBD0DB4E0
:1013000007FEFDCF8EB52EBD0DB407FEFDCF8EB509
:101310003EBD0DB407FEFDCF8EB5FCCECF93DF935F
:10132000EC014BDF4BDE803259F486E098E064E15B
:101330000E943A1ACE010CD9682F86E098E00CC0C2
:101340008091C5049091C60401969093C604809341
:10135000C50486E098E065E10E943A1ADF91CF91DA
:1013600008950F931F93CF93DF9328DE182F00E08B
:1013700025DEE801C80FD11D21DE863419F4CE0127
:10138000CDDF23C08534E1F4CE0175DF082F16DEF2
:10139000803249F486E098E064E10E943A1A86E0DF
:1013A00098E0602F10C08091C5049091C60401960A
:1013B0009093C6048093C50486E098E065E103C07D
:1013C00086E098E061E10E943A1ADF91CF911F9187
:1013D0000F9108950F931F93F1DD813509F475C0C6
:1013E0008235B8F4813409F445C0823440F4803346
:1013F00049F1813361F1803209F07AC06FC08534E0
:1014000009F442C0803509F443C0823409F070C049
:1014100034C0813609F451C0823650F4863509F45F
:1014200052C0803609F448C0853509F061C033C028
:10143000843709F446C0853709F44EC0843609F074
:1014400057C03DC01092C6041092C5041BC0B6DD43
:10145000803209F062C086E098E064E10E943A1AA6
:1014600086E098E060E072E00E94741B86E098E0FD
:1014700060E151C0A3DD71DE50C084E190E09DDEEB
:101480000E94410180DE49C085E090E096DEFACFFF
:101490000E943402F7CF92DD082F10E01093CA04A7
:1014A0000093C9048BDD382F20E0200F311F3093CB
:1014B000CA042093C904E6CF81DD80DDE3CF51DF8C
:1014C0002CC0EDDD2AC00ADF28C01092C60410929D
:1014D000C5040E941F02D6CF7BDD1FC08091C504CA
:1014E0009091C60401969093C6048093C50410C0E1
:1014F0008091C5049091C60401969093C604809390
:10150000C5045CDD803221F486E098E062E103C02E
:1015100086E098E065E10E943A1A1F910F910895C4
:1015200090918A03913C28F080918B038195809360
:101530008B03903228F480918B03819580938B03E9
:1015400060918B03690F60938A0381E270E0FFD79B
:1015500064E170E080E090E035C78091C70490912D
:10156000C804892B19F080E261E002C080E260E0EB
:101570000E9438148091C5049091C604892B19F0FB
:1015800082E261E002C082E260E00E943814C8DFBB
:1015900086E098E00E942318892B09F01BCF08955C
:1015A00086E098E040E05BE460E070E00E94AA160C
:1015B00080E261E00E94851380E290E062E070E0EA
:1015C000A0D882E261E00E94851382E290E062E0AE
:1015D00070E097D881E261E00E94851381E290E09B
:1015E00062E070E08EC886E098E00E94BD17D8DF08
:1015F000B4DFFECF1F9389E360E00E94381483E5D7
:101600008EBD0DB407FEFDCF8EB582E390E033D7DB
:101610001EBC0DB407FEFDCF1EB589E361E00E943C
:1016200038141F3E09F410E0812F1F910895EF92A6
:10163000FF920F931F93CF93DF937C01162F89E3C3
:1016400060E00E94381484E58EBD0DB407FEFDCF26
:101650008EB5C0E0D0E0012F10E00DC082E390E035
:101660000AD7F701EC0FFD1F80818EBD0DB407FE78
:10167000FDCF8EB52196C017D10784F389E361E0D1
:101680000E943814DF91CF911F910F91FF90EF903E
:101690000895DF93CF9300D00F920F92CDB7DEB7AE
:1016A00098E699839AE69A8390EF9B8391E09C83D6
:1016B0008D83CE01019665E0BADF0F900F900F90F9
:1016C0000F900F90CF91DF910895CF93DF9389E32F
:1016D00060E00E94381486E58EBD0DB407FEFDCF94
:1016E0008EB582E390E0C7D61EBC0DB407FEFDCFD9
:1016F0008EB58093A404863561F461E070E080E0EB
:1017000090E060D61EBC0DB407FEFDCF8EB5809371
:10171000A4048091A4048F3E11F0882351F489E33E
:1017200061E00E94381461E070E080E090E04AD609
:1017300002C0803110F080E01EC082E390E09BD6B2
:10174000C0E0D0E00DC01EBC0DB407FEFDCF8EB5CD
:10175000FE01EB56FB4F808382E390E08CD621960E
:101760008091A40490E0C817D9076CF389E361E085
:101770000E94381481E0DF91CF910895EF92FF929B
:101780000F931F93CF93DF9389E360E00E94381497
:1017900084E68EBD0DB407FEFDCF8EB582E390E0EA
:1017A0006AD61EBC0DB407FEFDCF8EB5082F10E023
:1017B00086E098E068E072E00E94741B86E098E0A2
:1017C000B8014AE050E00E94571B82E390E053D6F4
:1017D000C7EAD4E07E01E00EF11E09C01EBC0DB4C4
:1017E00007FEFDCF8EB5899382E390E044D6CE15F7
:1017F000DF05A1F709551B4FF801108289E361E06D
:101800000E94381487EA94E0DF91CF911F910F91E5
:10181000FF90EF900895AF92BF92CF92DF92EF9238
:10182000FF920F931F93DF93CF93CDB7DEB7279728
:101830000FB6F894DEBF0FBECDBF6E010894C11C79
:10184000D11CC60161E172E00E94D41C10926104B7
:1018500010926004809199048D3009F4B3C08E30E9
:1018600040F4853051F18C3071F0813009F0E1C0E5
:10187000B1C0813109F4D4C08C3509F486C08031FF
:1018800009F0D7C0A3C080919A0460919B040E9484
:10189000691C9695879596958795A0E0B0E0BC0168
:1018A000CD010E94FF1F0E94D31F709359046093C3
:1018B0005804C60162E172E0B0C060919A0470E021
:1018C00068527040882777FD8095982F0E940120EC
:1018D0005B016C0124EF3DE741E452E40E94FE1EEF
:1018E0007B018C0120E030E040E45FE30E94661F52
:1018F0000E94D31F6093B003C801B7010E94D31F99
:101900006093AF0386E098E0B601A50122E030E0E5
:101910000E94471C8091B003873E20F088E08093AE
:10192000B20302C01092B203CE01019664E272E0EB
:101930000E94ED1C86E098E062E472E00E94741B55
:1019400086E098E0B601A50122E030E00E94471C45
:1019500086E098E06EE472E00E94741B86E098E0F6
:101960006091B00340E150E00E94EC1A86E098E0FC
:1019700061E672E00E94741B86E098E06091B20319
:1019800040E150E00E94FD1A54C060919A0470E05A
:10199000882777FD8095982F0E9401202FEC37EF44
:1019A00045E051E40E94FE1E20E030E040E45FE3A9
:1019B0000E94661F0E94D31F6093AF03C60164E2BA
:1019C00072E02BC0C60160E772E027C0C60162E882
:1019D00072E023C060919A04661F6627661F70E05C
:1019E00080E090E00E94012020E030E040E050E004
:1019F0000E94621F882321F48091B003863E20F06C
:101A00008091B503826103C08091B5038D7E809380
:101A1000B503CE01019662E972E00E94ED1C09C097
:101A2000C60169E972E00E94ED1C80919A048093DE
:101A3000AA03CE0101960E94041D27960FB6F894C2
:101A4000DEBF0FBECDBFCF91DF911F910F91FF90F1
:101A5000EF90DF90CF90BF90AF9008958091950464
:101A60008838D1F4809196048B31B1F48091970439
:101A7000803191F480919804803171F480919904BF
:101A800060919A040E94691C969587959695879512
:101A90009093590480935804809195048836F9F402
:101AA00080919604893409F03FC080919704803179
:101AB000D9F5809198048031B9F58091990490E02E
:101AC000889790935B0480935A048D37910524F096
:101AD00088E08093B20308951092B20308958A3883
:101AE000C1F4809196048A3EF9F480919704803184
:101AF000D9F4809199048D3BB9F480919804909128
:101B0000B50387FF02C0926001C09D7F9093B5032B
:101B10000895883449F4809196048B3629F4809195
:101B20009704803109F477CE08950F931F938C01A9
:101B30003BD460934E0470934F0480935004909371
:101B4000510485E495E0A0E0B0E080936B049093AD
:101B50006C04A0936D04B0936E0488E080937704C6
:101B60008091B50380937D048091B30380937E04BC
:101B70008091B40380937F048091B20380938004AA
:101B80008091AF03809381048091B103809382049C
:101B90001092830488E180938404C80162E00E946B
:101BA000D0041F910F910895CF93DF93EC01FCD3E4
:101BB00060934204709343048093440490934504DB
:101BC00080915A0490915B048F38910534F08EE82F
:101BD00090E090935B0480935A0460915A04709152
:101BE0005B04882777FD8095982F0E94012024EFC1
:101BF0003DE741E452E40E94FE1E20E030E040E474
:101C00005FE30E94661F0E94D31F6093B00329E226
:101C100033E040E050E020936B0430936C04409339
:101C20006D0450936E0428E020937704E0914804FB
:101C3000F0914904EC57FC4F208120937D04609380
:101C40007E0482EB80937F0489E18093800410926C
:101C500081048091AA0380938204109283041092DD
:101C60008404CE0161E00E94D004809146049091EA
:101C7000470401969093470480934604089799F48B
:101C800010924704109246048091480490914904B0
:101C900001969093490480934804039724F010928E
:101CA000490410924804DF91CF910895CF92DF92BA
:101CB000EF92FF920F931F936C0160915804709103
:101CC000590480E090E00E94FF1F2DEC3CEC4CECAE
:101CD00050E40E94B5200E94D31F7B018C0164D385
:101CE00060934A0470934B0480934C0490934D048A
:101CF00086E193E0A0E0B0E080936B0490936C04E5
:101D0000A0936D04B0936E0488E08093770485E01F
:101D100080937D0482E680937E04E0927F04F092BB
:101D200080042091580430915904C90165E070E0A5
:101D30000E943B21E62F60938104C90163E970E0B2
:101D40000E943B219B01245D3F4F40915A045091DA
:101D50005B0486ED90E0BC01469FC001479F900D5B
:101D6000569F900D112468E17CEF0E944F21C9011C
:101D7000860F971F64EB71E00E943B218FEF90E08C
:101D80009C01629FC001639F900D729F900D112472
:101D90008093820410928304E0938404C60160E07F
:101DA0000E94D0041F910F91FF90EF90DF90CF9091
:101DB00008958091620490916304892B11F481E06D
:101DC00068DC8091620490916304019711F48CE5C2
:101DD00060DCEAD2609364047093650480936604C7
:101DE00090936704809162049091630401969093AC
:101DF0006304809362041816190624F41092630495
:101E00001092620481E090E09093610480936004FA
:101E100008958091A0039091A103019709F03FC01C
:101E2000C3D220914A0430914B0440914C0450910C
:101E30004D04621B730B840B950B6B307105810590
:101E4000910518F081E090E031DFAED220914E0490
:101E500030914F044091500450915104621B730B18
:101E6000840B950B6B3071058105910518F081E0AD
:101E700090E05BDE99D2209142043091430440917E
:101E8000440450914504621B730B840B950B6B301B
:101E900071058105910518F081E090E085DE81E013
:101EA00090E060E00E9460068823C1F081E090E04D
:101EB0009093A1038093A00360E070E00E948F05DF
:101EC00080916F0490917004A0917104B09172049C
:101ED00085519640A040B04009F465D880916004D7
:101EE00090916104892BE9F45FD22091AB0330918A
:101EF000AC034091AD035091AE03621B730B840B96
:101F0000950B653671058105910558F04DD26093AA
:101F1000AB037093AC038093AD039093AE038CE05E
:101F2000B8DB8091600490916104892B99F43CD2D4
:101F300020916404309165044091660450916704D7
:101F4000621B730B840B950B695E7340804090405D
:101F500008F02FDF4FDB882321F0B7DB882309F05F
:101F60007DCD08951F938AE498E00E9454182FEFC6
:101F70008F3F920709F404C1E0915E04F0915F0481
:101F8000EA54FC4F808310D260935404709355043C
:101F900080935604909357048FE891E090935304F4
:101FA0008093520480915E0490915F04813091058A
:101FB000D1F42091B703263128F086E098E066EA54
:101FC00072E006C0222379F486E098E068ED72E0C2
:101FD0000E94581C8AE498E00E947D1810925F04C9
:101FE00010925E04CDC0019690935F0480935E04CE
:101FF0002091B703E22FF0E03196E817F9070CF0D3
:10200000BFC010925F0410925E042F5FA6EBB3E096
:1020100090E010E003C08D9118279F5F9217D8F3CE
:10202000EA54FC4F8081181709F08CC080915C0441
:1020300090915D04892B31F486E098E063E073E0D1
:102040000E94581C81E090E090935D0480935C04B2
:102050008CE291E090935304809352048091B603F4
:102060008B35C9F48091B7038530A9F48091B8030A
:10207000803889F48091B903833869F48091BA0378
:10208000882349F086E098E06AE173E00E94581CDA
:1020900087E061E0EDD38091B6038B35C9F4809180
:1020A000B7038530A9F48091B803803889F4809112
:1020B000B903833869F48091BA03882349F486E030
:1020C00098E06DE273E00E94581C87E060E0D0D396
:1020D0008091B603882391F48091B703843071F422
:1020E0008091B8038F3B51F48091B903823731F46A
:1020F00086E098E061E473E00E94581C8091B6038A
:102100008038B1F48091B703843091F48091B803A2
:102110008F3B71F48091B903813151F48091BA03FE
:10212000882331F486E098E06CE473E00E94581C48
:102130003BD160935404709355048093560490935C
:1021400057041EC08AE498E0D8D710925F0410921A
:102150005E0486E098E064E573E00E94741B86E00C
:1021600098E0612F40E150E00E94FD1A10925D045A
:1021700010925C048DE291E090935304809352049A
:102180001F9108950F931F9387E061E0BED287E00F
:1021900060E06ED389E061E0B8D285E361E0B5D25A
:1021A0008AE061E0B2D28AE061E0AFD28DE061E026
:1021B000ACD28DE060E05CD389E361E0A6D28AE036
:1021C00061E0A3D28AE060E053D361E070E080E098
:1021D00090E0F8D08AE061E04BD389E361E048D336
:1021E0008AE061E045D389E061E042D388E061E0C4
:1021F0008CD288E061E03CD388E080937704109231
:10220000680478D080E060D081E055D080E061D073
:102210008091B50382608093B50360ED77E080E044
:1022200090E041E021E030E00E94A40680E061E01F
:1022300070E00E94D4038AE498E040E855E260E050
:1022400070E026E20ED606E018E0C80140E052EC4D
:1022500061E070E07FD5C80169E673E00E94581C18
:1022600064E670E080E090E0ADD088DABC01C8019F
:102270000E94581C88EC90E0A0E0B0E08093A60398
:102280009093A703A093A803B093A90383E090E0E1
:10229000A0E0B0E08093A2039093A303A093A403D3
:1022A000B093A50384E090E09093A6048093A504E6
:1022B0001F910F910895882319F48CB5806202C094
:1022C0008CB58F7D8CBD08959CB5937F982B9CBD5C
:1022D00008952CB5382F33702C7F322B3CBD2DB593
:1022E00090E0959587959595879581702E7F822BA7
:1022F0008DBD089585E361E0BBD285E361E005D241
:102300008CB580618CBD8CB580648CBD84E361E04C
:10231000FCD183E361E0F9C11F920F920FB60F92D7
:1023200011242F933F938F939F93AF93BF938091EB
:10233000E1059091E205A091E305B091E4053091AB
:10234000E5050196A11DB11D232F2D5F2D3720F02E
:102350002D570196A11DB11D2093E5058093E10540
:102360009093E205A093E305B093E4058091DD0529
:102370009091DE05A091DF05B091E0050196A11DC9
:10238000B11D8093DD059093DE05A093DF05B0932A
:10239000E005BF91AF919F918F913F912F910F9049
:1023A0000FBE0F901F9018958FB7F8942091E105FC
:1023B0003091E2054091E3055091E4058FBFB901EA
:1023C000CA0108959B01AC017FB7F8948091DD05A7
:1023D0009091DE05A091DF05B091E00566B5A89B60
:1023E00005C06F3F19F00196A11DB11D7FBFBA2F27
:1023F000A92F982F8827860F911DA11DB11D62E07E
:10240000880F991FAA1FBB1F6A95D1F7BC012DC069
:10241000FFB7F8948091DD059091DE05A091DF056E
:10242000B091E005E6B5A89B05C0EF3F19F0019615
:10243000A11DB11DFFBFBA2FA92F982F88278E0F7E
:10244000911DA11DB11DE2E0880F991FAA1FBB1F9E
:10245000EA95D1F7861B970B885E9340C8F221500E
:1024600030404040504068517C4F211531054105B6
:10247000510571F60895019739F0880F991F880F5B
:10248000991F02970197F1F70895789484B58260B7
:1024900084BD84B5816084BD85B5826085BD85B508
:1024A000816085BDEEE6F0E0808181608083E1E8B7
:1024B000F0E01082808182608083808181608083EF
:1024C000E0E8F0E0808181608083E1EBF0E08081F2
:1024D00084608083E0EBF0E0808181608083E1E9CB
:1024E000F0E0808182608083808181608083E0E988
:1024F000F0E0808181608083E1EAF0E080818260A9
:102500008083808181608083E0EAF0E08081816067
:102510008083E1E2F1E0808182608083808181605C
:102520008083E0E2F1E0808181608083EAE7F0E08F
:1025300080818460808380818260808380818160EB
:1025400080838081806880831092C10008951F93EA
:10255000CF93DF93182FEB0161E0D7D0209709F4D8
:10256000CAC0CF3FD10509F4C9C0E12FF0E0E25461
:10257000FE4F8491893009F466C08A30B0F484300B
:10258000F1F1853040F4823059F1833070F58130BB
:1025900009F0AEC020C0873009F443C0883008F08D
:1025A00048C0863009F0A4C034C08D3009F478C02A
:1025B0008E3038F48B3009F45AC08C3008F066C085
:1025C0004CC0803109F480C0813109F487C08F305C
:1025D00009F08EC06FC084B5806884BDC7BD91C04E
:1025E00084B5806284BDC8BD8CC080918000806845
:1025F00080938000D0938900C093880082C080912E
:102600008000806280938000D0938B00C0938A000A
:1026100078C08091B00080688093B000C093B30010
:1026200070C08091B00080628093B000C093B4000D
:1026300068C080919000806880939000D09399004A
:10264000C09398005EC0809190008062809390005B
:10265000D0939B00C0939A0054C0809190008860F2
:1026600080939000D0939D00C0939C004AC08091BD
:10267000A00080688093A0008091A0008F7B809351
:10268000A000D093A900C093A8003BC08091A000F7
:1026900080628093A000D093AB00C093AA0031C0A9
:1026A0008091A00088608093A000D093AD00C0937B
:1026B000AC0027C080912001806880932001D093D6
:1026C0002901C09328011DC0809120018062809360
:1026D0002001D0932B01C0932A0113C080912001C7
:1026E000886080932001D0932D01C0932C0109C0F4
:1026F000C038D1051CF4812F60E002C0812F61E059
:10270000B7D0DF91CF911F910895CF93DF93482FDA
:1027100050E0CA0188589E4FFC0134914E5C5E4FD8
:10272000FA018491882369F190E0880F991FFC01D8
:10273000EC51FF4FA591B491FC01E250FF4FC591C0
:10274000D491662351F42FB7F8948C91932F9095E0
:1027500089238C93888189230BC0623061F42FB761
:10276000F8948C91932F909589238C938881832B57
:1027700088832FBF06C09FB7F8948C91832B8C93CE
:102780009FBFDF91CF910895893009F449C08A3005
:10279000A0F4843051F1853040F4823079F18330F7
:1027A00000F5813009F063C026C0873079F18830A8
:1027B00098F5863009F05BC025C08D3009F442C021
:1027C0008E3028F48B30B1F18C30C0F52DC08031C3
:1027D00009F442C0813109F445C08F3009F047C087
:1027E00037C0809180008F7703C0809180008F7DFB
:1027F00080938000089584B58F7702C084B58F7D63
:1028000084BD08958091B0008F7703C08091B0009F
:102810008F7D8093B0000895809190008F7707C0DE
:10282000809190008F7D03C080919000877F80937E
:10283000900008958091A0008F7707C08091A0003C
:102840008F7D03C08091A000877F8093A0000895B2
:10285000809120018F7703C0809120018F7D80932C
:102860002001089580912001877F809320010895A1
:10287000FF920F931F93F62E482F50E0CA01825407
:102880009E4FFC012491CA0188589E4FFC0114916F
:102890004E5C5E4FFA0104910023C1F0222311F037
:1028A000822F72DFE02FF0E0EE0FFF1FE250FF4FAC
:1028B000A591B4919FB7F894FF2021F48C911095C5
:1028C000812302C08C91812B8C939FBF1F910F910C
:1028D000FF9008951F920F920FB60F920BB60F92B2
:1028E00011242F933F934F938F939F93EF93FF93D5
:1028F0008091C00082FD1DC04091C6002091260637
:10290000309127062F5F3F4F2F733070809128063C
:10291000909129062817390771F0E0912606F09169
:102920002706EA51FA4F4083309327062093260664
:1029300002C08091C600FF91EF919F918F914F91BE
:102940003F912F910F900BBE0F900FBE0F901F90D5
:10295000189508951F920F920FB60F920BB60F9213
:1029600011242F933F934F938F939F93EF93FF9354
:102970008091C80082FD1DC04091CE002091AE061E
:102980003091AF062F5F3F4F2F7330708091B006AC
:102990009091B1062817390771F0E091AE06F091D9
:1029A000AF06E259F94F40833093AF062093AE064D
:1029B00002C08091CE00FF91EF919F918F914F9136
:1029C0003F912F910F900BBE0F900FBE0F901F9055
:1029D00018951F920F920FB60F920BB60F921124FB
:1029E0002F933F934F938F939F93EF93FF938091F8
:1029F000D00082FD1DC04091D60020913607309155
:102A000037072F5F3F4F2F733070809138079091B9
:102A100039072817390771F0E0913607F091370729
:102A2000EA50F94F4083309337072093360702C0AE
:102A30008091D600FF91EF919F918F914F913F919F
:102A40002F910F900BBE0F900FBE0F901F901895F7
:102A500008951F920F920FB60F920BB60F9211248A
:102A60002F933F934F938F939F93EF93FF93809177
:102A7000300182FD1DC0409136012091BE0730918A
:102A8000BF072F5F3F4F2F7330708091C007909129
:102A9000C1072817390771F0E091BE07F091BF0711
:102AA000E258F84F40833093BF072093BE0702C01F
:102AB00080913601FF91EF919F918F914F913F91BE
:102AC0002F910F900BBE0F900FBE0F901F90189577
:102AD000E0911208F0911308E05CFF4F8191919111
:102AE00020813181821B930B8F739070892B11F0A1
:102AF0000E94F30AE0913408F0913508E05CFF4F42
:102B00008191919120813181821B930B8F73907001
:102B1000892B09F01EDFE0915608F0915708E05C20
:102B2000FF4F8191919120813181821B930B8F7393
:102B30009070892B09F016DAE0917808F091790805
:102B4000E05CFF4F8191919120813181821B930B39
:102B50008F739070892B09F07BCF08951F920F928D
:102B60000FB60F920BB60F9211242F933F938F93B2
:102B70009F93EF93FF9320916A0630916B068091AB
:102B80006C0690916D062817390731F48091C100C9
:102B90008F7D8093C10014C0E0916C06F0916D06AA
:102BA000E65DF94F208180916C0690916D0601964B
:102BB0008F73907090936D0680936C062093C6007F
:102BC000FF91EF919F918F913F912F910F900BBEAD
:102BD0000F900FBE0F901F9018951F920F920FB677
:102BE0000F920BB60F9211242F933F938F939F93C5
:102BF000EF93FF932091F2063091F3068091F40653
:102C00009091F5062817390731F48091C9008F7D1E
:102C10008093C90014C0E091F406F091F506EE54DB
:102C2000F94F20818091F4069091F50601968F73FB
:102C300090709093F5068093F4062093CE00FF9158
:102C4000EF919F918F913F912F910F900BBE0F901D
:102C50000FBE0F901F9018951F920F920FB60F92F4
:102C60000BB60F9211242F933F938F939F93EF9363
:102C7000FF9320917A0730917B0780917C07909198
:102C80007D072817390731F48091D1008F7D80931B
:102C9000D10014C0E0917C07F0917D07E65CF84F0D
:102CA000208180917C0790917D0701968F739070B1
:102CB00090937D0780937C072093D600FF91EF913E
:102CC0009F918F913F912F910F900BBE0F900FBE50
:102CD0000F901F9018951F920F920FB60F920BB680
:102CE0000F9211242F933F938F939F93EF93FF9312
:102CF0002091020830910308809104089091050802
:102D00002817390731F4809131018F7D809331018B
:102D100014C0E0910408F0910508EE53F84F2081AB
:102D2000809104089091050801968F73907090939C
:102D300005088093040820933601FF91EF919F913D
:102D40008F913F912F910F900BBE0F900FBE0F9060
:102D50001F901895AF92BF92DF92EF92FF920F9360
:102D60001F93CF93DF93EC017A018B01DD24403078
:102D700081EE580780E0680780E0780711F0DD24D5
:102D8000D39491E0A92EB12CEC89FD89DD2069F066
:102D9000C50108A002C0880F991F0A94E2F780833A
:102DA00060E079E08DE390E005C0108260E874E8AF
:102DB0008EE190E0A80197010E94622121503040ED
:102DC00040405040569547953795279580E12030F3
:102DD000380720F0DD2011F0DD24D6CFE889F9890D
:102DE0003083EA89FB89208319A2EE89FF8940811B
:102DF00021E030E0C9010C8C02C0880F991F0A94B1
:102E0000E2F7482B4083EE89FF894081C9010D8C90
:102E100002C0880F991F0A94E2F7482B4083EE897D
:102E2000FF894081C9010E8C02C0880F991F0A9446
:102E3000E2F7482B4083EE89FF8980810F8C02C026
:102E4000220F331F0A94E2F7209528232083DF9175
:102E5000CF911F910F91FF90EF90DF90BF90AF90B7
:102E60000895AF92BF92CF92DF92EF92FF920F93AD
:102E70001F93CF93DF93EC017A018B01C22EDD24E7
:102E8000403081EE580780E0680780E0780711F055
:102E9000DD24D39471E0A72EB12CEC89FD89DD20CF
:102EA00069F0C50108A002C0880F991F0A94E2F7D3
:102EB000808360E079E08DE390E005C0108260E8F7
:102EC00074E88EE190E0A80197010E9462212150F0
:102ED000304040405040569547953795279580E1C2
:102EE0002030380720F0DD2011F0DD24D6CFE8892E
:102EF000F9893083EA89FB892083E88DF98DC082C6
:102F0000EE89FF89408121E030E0C9010C8C02C0CC
:102F1000880F991F0A94E2F7482B4083EE89FF89B6
:102F20004081C9010D8C02C0880F991F0A94E2F7F5
:102F3000482B4083EE89FF894081C9010E8C02C075
:102F4000880F991F0A94E2F7482B4083EE89FF8986
:102F500080810F8C02C0220F331F0A94E2F7209564
:102F600028232083DF91CF911F910F91FF90EF9045
:102F7000DF90CF90BF90AF900895CF93DF93DC01A7
:102F80001E968D919C911F97EC01C05CDF4FFC0158
:102F9000EE5BFF4F288139818081918128173907A5
:102FA000C9F75696ED91FC915797408121E030E0AA
:102FB000C9015C960C905C9702C0880F991F0A9417
:102FC000E2F78095842380835696ED91FC91579784
:102FD0004081C9015D960C905D9702C0880F991FD2
:102FE0000A94E2F78095842380835696ED91FC91B4
:102FF00057974081C9015E960C905E9702C0880F7A
:10300000991F0A94E2F78095842380835696ED9168
:10301000FC91579780815F960C905F9702C0220FBA
:10302000331F0A94E2F72095282320831C96ED9104
:10303000FC911D97EE5BFF4F80819181929382936B
:10304000DF91CF910895DC011C96ED91FC911D97C5
:10305000E05CFF4F2191319180819181281B390BD8
:103060002F733070C9010895DC011C96ED91FC911D
:103070001D97E05CFF4F20813181E054F040DF017B
:10308000AE5BBF4F8D919C9111972817390719F4AA
:103090002FEF3FEF07C08D919C91E80FF91F8081C2
:1030A000282F30E0C9010895DC011C96ED91FC91B8
:1030B0001D97E05CFF4F20813181E054F040DF013B
:1030C000AE5BBF4F8D919C9111972817390719F46A
:1030D0002FEF3FEF10C08D919C911197E80FF91FD2
:1030E00020818D919C91119701968F73907011960C
:1030F0009C938E9330E0C9010895DC0191968C91E8
:103100009197882339F05496ED91FC9155978081E1
:1031100086FFF9CF91961C920895CF93DF93EC012F
:10312000EE85FF85E05CFF4F20813181E054F04067
:103130002F5F3F4F2F733070DF01AE5BBF4F8D911C
:103140009C91119728173907D1F3E05CFF4F8081DC
:103150009181E054F040E80FF91F6083EE85FF8510
:10316000E05CFF4F31832083EE89FF89208181E07D
:1031700090E00F8C02C0880F991F0A94E2F7282B69
:10318000208381E089A3EC89FD898081806480832C
:1031900081E090E0DF91CF9108951F93109209088C
:1031A0001092080828EE33E040E050E020930A082F
:1031B00030930B0840930C0850930D0864E973E0BA
:1031C000709307086093060886EE95E090931308C5
:1031D000809312088AE296E0909315088093140871
:1031E00085EC90E0909317088093160884EC90E0AB
:1031F000909319088093180880EC90E090931B0836
:1032000080931A0881EC90E090931D0880931C082D
:1032100082EC90E090931F0880931E0886EC90E06B
:10322000909321088093200814E010932208B3E0C3
:10323000B0932308A7E0A0932408F5E0F0932508B5
:10324000E1E0E093260810922B0810922A082093C0
:103250002C0830932D0840932E0850932F0870931C
:103260002908609328088EE696E0909335088093AD
:10327000340882EB96E090933708809336088DEC03
:1032800090E090933908809338088CEC90E090930C
:103290003B0880933A0888EC90E090933D08809337
:1032A0003C0889EC90E090933F0880933E088AECBC
:1032B00090E090934108809340088EEC90E09093CA
:1032C00043088093420810934408B0934508A093A4
:1032D0004608F0934708E093480810924D08109272
:1032E0004C0820934E0830934F0840935008509359
:1032F000510870934B0860934A0886EF96E09093CC
:103300005708809356088AE397E090935908809372
:10331000580885ED90E090935B0880935A0884EDFF
:1033200090E090935D0880935C0880ED90E090932E
:103330005F0880935E0881ED90E090936108809330
:10334000600882ED90E0909363088093620886EDB8
:1033500090E0909365088093640810936608B0939A
:103360006708A0936808F0936908E0936A081092D0
:103370006F0810926E082093700830937108409384
:1033800072085093730870936D0860936C088EE711
:1033900097E0909379088093780882EC97E0909377
:1033A0007B0880937A0885E391E090937D08809371
:1033B0007C0884E391E090937F0880937E0880E30B
:1033C00091E0909381088093800881E391E090934D
:1033D00083088093820882E391E09093850880932C
:1033E000840886E391E09093870880938608109381
:1033F0008808B0938908A0938A08F0938B08E0931B
:103400008C081F910895CF93DF933FD80E94C2107C
:10341000C8E6D5E10E94090F2097E1F359DBFACF06
:10342000CF92DF92EF92FF920F931F93CF93DF9390
:103430007C016B018A01C0E0D0E00FC0D6016D9124
:103440006D01D701ED91FC910190F081E02DC70154
:103450001995C80FD91F015010400115110571F7BA
:10346000CE01DF91CF911F910F91FF90EF90DF90F0
:10347000CF900895DC01ED91FC910190F081E02D59
:1034800019950895EF92FF920F931F938C01DC0121
:10349000ED91FC910190F081E02D6DE019957C019A
:1034A000D801ED91FC910190F081E02DC8016AE016
:1034B00019959C012E0D3F1DC9011F910F91FF9081
:1034C000EF900895CF93DF93EC016115710519F426
:1034D00020E030E00FC0DB010D900020E9F71197EC
:1034E000A61BB70BE881F9810280F381E02DAD01C5
:1034F00019959C01C901DF91CF9108954F925F9278
:103500007F928F929F92AF92BF92CF92DF92EF9273
:10351000FF920F931F93DF93CF93CDB7DEB7A197A1
:103520000FB6F894DEBF0FBECDBF2C01742ECB01B9
:10353000223008F42AE019A231E2C32ED12CCC0E9D
:10354000DD1E822E9924AA24BB24672D752FA50188
:103550009401B8D679018A01C801B701A501940187
:103560006BD6472D461B0894C108D1084A3014F485
:10357000405D01C0495CF6014083E114F10401059E
:10358000110521F07E2C5F2DC801DFCFC201B601ED
:1035900099DFA1960FB6F894DEBF0FBECDBFCF91D5
:1035A000DF911F910F91FF90EF90DF90CF90BF9030
:1035B000AF909F908F907F905F904F900895DC0127
:1035C0002115310541F4ED91FC910190F081E02D40
:1035D000642F1995089592CFEF92FF920F931F9346
:1035E0009A01E62EFF2400E010E0B801A701E7DF12
:1035F0001F910F91FF90EF900895CF92DF92EF927D
:10360000FF920F931F936C01E62E9A01FF2400E0B6
:1036100010E0B801A701D3DF8C01C60133DF080F2A
:10362000191FC8011F910F91FF90EF90DF90CF906D
:103630000895CF92DF92EF92FF920F931F93CF9353
:10364000DF93EC016A017B012115310541F4E8812A
:10365000F9810190F081E02D642F19951DC02A3069
:103660003105C9F477FF16C0E881F9810190F08136
:10367000E02D6DE219958C0144275527BA014C19AC
:103680005D096E097F09CE012AE038DF9801280F15
:10369000391F03C02AE032DF9C01C901DF91CF91BD
:1036A0001F910F91FF90EF90DF90CF900895CF92F0
:1036B000DF92EF92FF920F931F936C017B019A01AF
:1036C0000027F7FC0095102FB801A701B2DF8C018D
:1036D000C601D8DE080F191FC8011F910F91FF9076
:1036E000EF90DF90CF900895EDCE08957F928F9266
:1036F0009F92AF92BF92CF92DF92EF92FF920F9381
:103700001F93CF93DF934C017A018B01722ECB0173
:10371000BA01A80197018CD5882321F0C40166E77E
:1037200073E01FC0C0E0D0E057016801E894D7F80B
:10373000C601B5012FEF3FEF4FE75FE779D588234B
:1037400049F4C601B5012FEF3FEF4FE75FE7BAD36A
:10375000181614F0C1E0D0E0219731F0C4016AE7F7
:1037600073E0B0DEEC0184C0C801B7012FEF3FEF7A
:103770004FE75FE4F6D418164CF0C801B7012FEFFD
:103780003FEF4FE75FEC9ED3882324F4C4016EE73C
:1037900073E0E7CFC801B70120E030E040E050E03F
:1037A00091D387FD03C0C0E0D0E00EC0D401ED91FD
:1037B000FC910190F081E02DC4016DE21995EC01BE
:1037C00017FB109517F9109520E030E040E05FE31B
:1037D000DD240AC0CA01B90120E030E040E251E432
:1037E00075D39B01AC01D394D714A0F3C801B701E2
:1037F00005D35B016C01D7D37B018C01C401B801F7
:10380000A7012AE030E0DBDEC80FD91F772031F0B6
:10381000C40162E873E056DEC80FD91FC801B701C2
:10382000EED39B01AC01C601B501E7D21FC020E079
:1038300030E040E251E499D47B018C01AFD35B01CD
:103840006C01CC24B7FCC094DC2CC401B601A501EA
:103850002AE030E0EEDEC80FD91FC601B501D1D392
:103860009B01AC01C801B701C8D27A947720F9F660
:10387000CE01DF91CF911F910F91FF90EF90DF90DC
:10388000CF90BF90AF909F908F907F900895EF92D0
:10389000FF920F931F937C0129DF8C01C701F2DD9A
:1038A000080F191FC8011F910F91FF90EF90089505
:1038B000EF92FF920F931F937C0104DE8C01C701EE
:1038C000E1DD080F191FC8011F910F91FF90EF90C4
:1038D000089570E0382F20E0622B732BCB01089500
:1038E0000F931F93CF93DF93EC018B016F5F7F4F9B
:1038F00088819981ACD1009711F480E005C099834B
:1039000088831B830A8381E0DF91CF911F910F9100
:103910000895CF93DF93EC0188819981892B29F059
:103920008A819B818617970758F4CE01D9DF8823B7
:1039300041F08C819D81892B19F4E881F9811082F5
:1039400081E0DF91CF910895CF93DF93EC018881DF
:103950009981009709F0E3D0198218821D821C8298
:103960001B821A82DF91CF910895EF92FF920F93FD
:103970001F93CF93DF93EC017B018A01BA01C9DF6A
:10398000882319F4CE01E0DF07C01D830C838881F2
:103990009981B7010E943A01CE01DF91CF911F9129
:1039A0000F91FF90EF900895CF93DF93EC01198270
:1039B00018821B821A821D821C821E82611571056B
:1039C00049F0DB010D900020E9F71197A61BB70B1A
:1039D000AD01CBDFDF91CF9108950F931F93182F87
:1039E000092F6115710551F0DB010D900020E9F7F9
:1039F0001197A61BB70BAD01B8DF01C0A5DF812F62
:103A0000902F1F910F910895FC018081918187C0B3
:103A10000F931F93CF93DF93BC018230910510F475
:103A200062E070E0E0918E08F0918F08A0E0B0E0D5
:103A300040E050E024C08081918186179707D0F044
:103A40008617970771F482819381109729F0139656
:103A50009C938E9312972CC090938F0880938E081E
:103A600027C04115510519F08417950718F4EF0187
:103A70008D01AC01DF01828193819C01F9013097B6
:103A8000D1F641155105F9F0CA01861B970B843018
:103A9000910580F48A819B810115110521F0F801BF
:103AA0009383828304C090938F0880938E08FE01D5
:103AB00032962FC0FE01E80FF91F619371930297B0
:103AC0009983888326C08DB79EB7885790402091F0
:103AD0008C0330918D0328173907C8F4AC01421BC1
:103AE000530B4617570798F0CB0102964817590712
:103AF00070F0820F931F90938D0380938C039093AB
:103B00008F0380938E03F9016193719302C0E0E00B
:103B1000F0E0CF01DF91CF911F910F910895CF93E6
:103B2000DF939C01009709F48FC0EC0122971B8260
:103B30001A8260918E0870918F086115710581F469
:103B400088819981820F931F20918C0330918D037E
:103B50002817390739F5D0938D03C0938C0374C0AF
:103B6000DB0140E050E0AC17BD0708F1BB83AA833E
:103B7000FE0121913191E20FF31FAE17BF0779F4D7
:103B80008D919C911197280F391F2E5F3F4F3983DC
:103B9000288312968D919C9113979B838A8341155C
:103BA000510571F4D0938F08C0938E084DC01296C2
:103BB0008D919C911397AD01009711F0DC01D3CF4B
:103BC000DA011396DC93CE931297FA012191319189
:103BD000E20FF31FCE17DF0769F488819981280F60
:103BE000391F2E5F3F4FFA01318320838A819B81E9
:103BF00093838283E0E0F0E0DB0112968D919C914B
:103C00001397009719F0BC01FD01F6CFAB014E5F91
:103C10005F4FDB018D919C91840F951F20918C0348
:103C200030918D032817390779F4309729F41092D1
:103C30008F0810928E0802C01382128242505040A8
:103C400050938D0340938C03DF91CF9108956F9231
:103C50007F928F929F92AF92BF92CF92DF92EF921C
:103C6000FF920F931F93CF93DF938C01009721F462
:103C7000CB01CEDE8C01B1C08EEFE82E8FEFF82E97
:103C8000E00EF11E5801A60EB71EAE14BF0408F4D4
:103C9000A2C0D7014D915C91119746175707B0F01C
:103CA0004530510508F499C0CA0104978617970753
:103CB00008F493C042505040461B570BF501419306
:103CC00051936D937C93CF012ADF87C04B01841AF7
:103CD000950A3801640E751EA0918E08B0918F0868
:103CE000CC24DD24E0E0F0E047C0A615B705A9F537
:103CF000CD91DC911197CE0102968815990568F156
:103D0000CE0188199909029612962C911297139652
:103D10003C91059758F0F50122833383C819D909DE
:103D2000D183C083D7016D937C9309C04E5F5F4FF1
:103D30004C0F5D1FF70151834083C901FC01C11481
:103D4000D10431F0D6011396FC93EE93129745C03F
:103D5000F0938F08E0938E0840C08D919C9111974D
:103D6000E817F90708F4FC016D0112968C9112977F
:103D700013969C919C01D901109709F0B6CF8091C0
:103D80008C0390918D0386159705B1F4E617F7071C
:103D900098F48DB79EB788579040A816B906D8F406
:103DA000B0928D03A0928C03B0928F03A0928E03E9
:103DB000F7017183608311C0CB012ADEEC0100970B
:103DC00051F0D7014D915C91B8010E943101C801B9
:103DD000A6DE8E0102C000E010E0C801DF91CF91A5
:103DE0001F910F91FF90EF90DF90CF90BF90AF9019
:103DF0009F908F907F906F9008955058BB27AA276F
:103E00000ED075C166D130F06BD120F031F49F3FF8
:103E100011F41EF45BC10EF4E095E7FB51C1E92FEC
:103E200077D180F3BA17620773078407950718F0F4
:103E300071F49EF58FC10EF4E0950B2EBA2FA02DD4
:103E40000B01B90190010C01CA01A0011124FF2747
:103E5000591B99F0593F50F4503E68F11A16F04042
:103E6000A22F232F342F4427585FF3CF4695379541
:103E70002795A795F0405395C9F77EF41F16BA0B06
:103E8000620B730B840BBAF09150A1F0FF0FBB1FB4
:103E9000661F771F881FC2F70EC0BA0F621F731FFD
:103EA000841F48F4879577956795B795F7959E3F5A
:103EB00008F0B3CF9395880F08F09927EE0F9795E8
:103EC00087950895D9D008F481E008950CD00FC1EA
:103ED00007D140F0FED030F021F45F3F19F0F0C080
:103EE000511139C1F3C014D198F39923C9F3552363
:103EF000B1F3951B550BBB27AA27621773078407DD
:103F000038F09F5F5F4F220F331F441FAA1FA9F392
:103F100033D00E2E3AF0E0E830D091505040E69584
:103F2000001CCAF729D0FE2F27D0660F771F881FE5
:103F3000BB1F261737074807AB07B0E809F0BB0BD4
:103F4000802DBF01FF2793585F4F2AF09E3F5105F8
:103F500068F0B6C000C15F3FECF3983EDCF3869595
:103F600077956795B795F7959F5FC9F7880F911D6E
:103F70009695879597F90895E1E0660F771F881F5A
:103F8000BB1F621773078407BA0720F0621B730B0D
:103F9000840BBA0BEE1F88F7E095089504D068945F
:103FA000B111D9C00895BCD088F09F5790F0B92FB7
:103FB0009927B751A0F0D1F0660F771F881F991F7E
:103FC0001AF0BA95C9F712C0B13081F0C3D0B1E090
:103FD0000895C0C0672F782F8827B85F39F0B93FA0
:103FE000CCF3869577956795B395D9F73EF4909580
:103FF0008095709561957F4F8F4F9F4F0895E894FE
:1040000009C097FB3EF490958095709561957F4F20
:104010008F4F9F4F9923A9F0F92F96E9BB279395CE
:10402000F695879577956795B795F111F8CFFAF4DE
:10403000BB0F11F460FF1BC06F5F7F4F8F4F9F4F0F
:1040400016C0882311F096E911C0772321F09EE86D
:10405000872F762F05C0662371F096E8862F70E0D3
:1040600060E02AF09A95660F771F881FDAF7880FAD
:104070009695879597F90895990F0008550FAA0B03
:10408000E0E8FEEF16161706E807F907C0F012166B
:104090001306E407F50798F0621B730B840B950B6E
:1040A00039F40A2661F0232B242B252B21F40895C3
:1040B0000A2609F4A140A6958FEF811D811D089560
:1040C00097F99F6780E870E060E008959FEF80ECCB
:1040D000089500240A94161617061806090608956E
:1040E00000240A9412161306140605060895092ED4
:1040F0000394000C11F4882352F0BB0F40F4BF2B43
:1041000011F460FF04C06F5F7F4F8F4F9F4F089582
:1041100057FD9058440F551F59F05F3F71F0479578
:10412000880F97FB991F61F09F3F79F0879508955D
:10413000121613061406551FF2CF4695F1DF08C07C
:10414000161617061806991FF1CF86957105610599
:1041500008940895E894BB2766277727CB0197F941
:1041600008958ADF08F48FEF08950BD0C0CFB1DF38
:1041700028F0B6DF18F0952309F0A2CFA7CF1124BD
:10418000EACFC6DFA0F3959FD1F3950F50E0551FFE
:10419000629FF001729FBB27F00DB11D639FAA279C
:1041A000F00DB11DAA1F649F6627B00DA11D661FEB
:1041B000829F2227B00DA11D621F739FB00DA11D0C
:1041C000621F839FA00D611D221F749F3327A00DC6
:1041D000611D231F849F600D211D822F762F6A2F62
:1041E00011249F5750408AF0E1F088234AF0EE0FE7
:1041F000FF1FBB1F661F771F881F91505040A9F7F4
:104200009E3F510570F05CCFA6CF5F3FECF3983E28
:10421000DCF3869577956795B795F795E7959F5F5A
:10422000C1F7FE2B880F911D9695879597F90895F4
:1042300023DF880B990B0895629FD001739FF001D3
:10424000829FE00DF11D649FE00DF11D929FF00D26
:10425000839FF00D749FF00D659FF00D9927729F5D
:10426000B00DE11DF91F639FB00DE11DF91FBD01E8
:10427000CF0111240895AA1BBB1B51E107C0AA1F3F
:10428000BB1FA617B70710F0A61BB70B881F991FF7
:104290005A95A9F780959095BC01CD01089597FB9B
:1042A000092E07260AD077FD04D0E5DF06D00020CE
:1042B0001AF4709561957F4F0895F6F79095819562
:1042C0009F4F0895A1E21A2EAA1BBB1BFD010DC032
:1042D000AA1FBB1FEE1FFF1FA217B307E407F507B6
:1042E00020F0A21BB30BE40BF50B661F771F881F92
:1042F000991F1A9469F760957095809590959B0128
:10430000AC01BD01CF010895EE0FFF1F0590F491A0
:08431000E02D1994F894FFCF91
:104318004156522049535000565F6C656E203D3D12
:104328000000454E47494E455F52504D2072706D12
:10433800203D2000656E67696E6520636F6F6C6154
:104348006E742074656D7020286465674329203D6C
:10435800200074656D7020284329203D20002042EC
:104368004D572056616C75652C20486578203D2096
:10437800002054656D70206C69676874203D2000CA
:1043880056454849434C455F5350454544206B6D5D
:1043980020004D41465F53454E534F5220672F73BF
:1043A80020004D494C203D20005448524F54544C55
:1043B8004520252520002069627573206A756E6B7B
:1043C800206C656E67746820647572696E67206911
:1043D8006E697469616C697A696E6720736F20739E
:1043E800746F7070696E67002069627573207A65F2
:1043F800726F206C656E67746820696E6974696194
:104408006C697A696E6720736F2073746F70706956
:104418006E67002069627573206E6F7720696E6918
:104428007469616C697A6564200069627573206DCE
:10443800657373616765204143206F6E006962751B
:1044480073206D657373616765204143206F6666ED
:1044580000636172206F6E2F6F666600696B65205E
:104468006F66660020696275732043524320666157
:10447800696C204352433D20005049445F565057D1
:104488005F56303036006E616E00696E66006F767A
:1044980066002E001180D900090A8008900864007F
:1044A800000000008D18101A2318541834187D18AD
:00000001FF
