:1000000007C1000036C1000034C1000032C1000049
:1000100030C100002EC100002CC100002AC1000028
:1000200028C1000026C1000024C1000022C1000038
:1000300020C100001EC100001CC100001AC1000048
:1000400018C1000016C1000014C1000012C1000058
:1000500010C100000EC100000CC1000057C4000018
:1000600008C100001EC40000F3C3000002C100006C
:1000700000C10000FEC00000FCC00000FAC000008B
:10008000F8C00000F6C00000F4C00000F2C000009C
:10009000F0C00000EEC00000ECC00000EAC00000AC
:1000A000E8C00000E6C00000E4C00000E2C00000BC
:1000B000E0C00000DEC00000DCC00000DAC00000CC
:1000C000D8C00000D6C00000D4C0000098C3000013
:1000D0006DC30000CEC00000CCC00000CAC000004C
:1000E000C8C00000ED02F002DF02E302E7022703CE
:1000F000F402F802FE02020306030C0310031403C9
:1001000027031A031E03220300000A0B02090C0D29
:100110000E080703040100000000000000000000BA
:1001200000000000000000000000000000000000CF
:10013000000000001211100000000000000000008C
:1001400000000000000000000000000000000000AF
:100150002200250028002B002E003100340002016F
:100160000000050108010B01000021002400270008
:100170002A002D00300033000101000004010701B6
:100180000A0105050505070508080808020202021C
:100190000A0A080804040404010101010101010123
:1001A0000303030303030303040707070C0C0C0CEE
:1001B0000C0C0C0C020202020606060606060606D7
:1001C0000B0B0B0B0B0B0B0B010210202008081064
:1001D00020401020408002010201080402010102B7
:1001E0000408102040808040201008040201800490
:1001F00002018040201008040201080402010102EB
:100200000408102040800102040810204080FC0FE8
:1002100011241FBECFEFD1E2DEBFCDBF00E00CBF87
:1002200014E0A0E0B2E0E6E3FAE200E00BBF02C0B7
:1002300007900D92A430B107D9F726E0A4E0B4E00E
:1002400001C01D92A037B207E1F711E0C8E0D1E08C
:1002500000E006C021970109802FFE010E94EC12E8
:10026000C730D10780E00807A9F70E94200A0C9444
:100270001915C6CECF92DF92EF92FF920F931F9384
:10028000CF93DF936C017A018B01C0E0D0E0CE15F3
:10029000DF0589F0D8016D918D01D601ED91FC91BA
:1002A0000190F081E02DC6011995892B11F47E0192
:1002B00002C02196ECCFC701DF91CF911F910F9122
:1002C000FF90EF90DF90CF900895FC01A089B18955
:1002D0008C91A689B78982FD0FC09C91818D8F5F1B
:1002E0008F73228D821749F0218DDF01A20FB11D7E
:1002F0005D969C93818F08958C910895089580E078
:1003000090E00895FC01538D448D252F30E0842F1B
:1003100090E0821B930B541710F0CF96089501972D
:100320000895FC01918D828D981761F0828DDF0117
:10033000A80FB11D5D968C91928D9F5F9F73928FD8
:1003400090E008958FEF9FEF0895FC01918D828DCD
:10035000981731F0828DE80FF11D858D90E008959A
:100360008FEF9FEF0895FC01918D228D892F90E0F2
:10037000805C9F4F821B91098F73992708958FE2AC
:1003800095E0F1DF21E0892B09F420E0822F089528
:100390008CEC95E0E8DF21E0892B09F420E0822F46
:1003A0000895CF92DF92EF92FF921F93CF93DF9346
:1003B000EC016A017B01122FE889F98982E08083D0
:1003C0004115514E61057105B1F060E079E08DE3B2
:1003D00090E0A70196010E948E11DA01C9010197F0
:1003E000A109B109B695A79597958795AC014115D7
:1003F00080E15807A8F0E889F989108260E874E87C
:100400008EE190E0A70196010E948E11BA01A90128
:10041000415051096109710976956795579547953E
:10042000EC85FD855083EE85FF854083188EEC8931
:10043000FD891083EA89FB89808180618083EA8954
:10044000FB89808188608083EA89FB89808180685C
:100450008083EA89FB8980818F7D8083DF91CF91C2
:100460001F91FF90EF90DF90CF900895FC01848D55
:10047000DF01A80FB11DA35ABF4F2C91848D90E0CE
:1004800001968F739927848FA689B7892C93A089A9
:10049000B1898C9180648C93938D848D981306C060
:1004A0000288F389E02D80818F7D80830895EF920B
:1004B000FF920F931F93CF93DF93EC0181E0888F1E
:1004C0009B8D8C8D981305C0E889F989808185FD05
:1004D00023C0F62E0B8D10E00F5F1F4F0F731127F7
:1004E000E02E8C8DE8120BC00FB607FCFACFE8891E
:1004F000F989808185FFF5CFCE01B8DFF2CF8B8DF2
:10050000FE01E80FF11DE35AFF4FF0820B8FEA89DD
:10051000FB898081806207C0EE89FF896083E8895A
:10052000F98980818064808381E090E0DF91CF91C0
:100530001F910F91FF90EF900895CF93DF93EC01FF
:10054000888D8823C1F0EA89FB89808185FD05C0FB
:10055000A889B9898C9186FD0EC00FB607FCF5CF2E
:10056000808185FFF2CFA889B9898C9185FFEDCF75
:10057000CE017CDFE8CFDF91CF910895362F90E058
:10058000FC01E85FFE4F4491FC01E853FE4F2491CB
:10059000FC01EE57FE4F9491992309F46BC044235C
:1005A00009F455C050E0FA013197E231F10508F045
:1005B0004EC08827EE58FF4F8F4F0C94EC1280915D
:1005C00080008F7707C0809180008F7D03C080916D
:1005D0008000877F809380003AC084B58F7702C007
:1005E00084B58F7D84BD33C08091B0008F7703C008
:1005F0008091B0008F7D8093B00029C080919000E1
:100600008F7707C0809190008F7D03C0809190000C
:10061000877F809390001BC08091A0008F7707C0D8
:100620008091A0008F7D03C08091A000877F809380
:10063000A0000DC0809120018F7707C0809120011C
:100640008F7D03C080912001877F80932001E92F57
:10065000F0E0EE0FFF1FE25BFE4FA591B4918FB764
:10066000F894EC91311103C020952E2301C02E2B5C
:100670002C938FBF08953FB7F89480919704909181
:100680009804A0919904B0919A0426B5A89B05C03E
:100690002F3F19F00196A11DB11D3FBFBA2FA92F01
:1006A000982F8827820F911DA11DB11DBC01CD017E
:1006B00042E0660F771F881F991F4A95D1F708956A
:1006C0004091010250E04E5F5F4F60E072E08FE2C8
:1006D00095E0D0DD1092D40408958EBD00000DB4D5
:1006E00007FEFDCF8EB508950E940515EF92FF928B
:1006F0000F931F93CF93DF93EC017B018A018881D5
:100700009981009729F02A813B8124173507F8F455
:10071000B8016F5F7F4F0E942114009759F09983B1
:1007200088831B830A832C813D81232B81F4FC0168
:1007300010820DC088819981009711F00E94891361
:10074000198218821D821C821B821A8207C01D8397
:100750000C83B701888199810E941215CE01DF9127
:10076000CF911F910F91FF90EF900895CF93DF935A
:10077000EC016115710551F0FB0101900020E9F7D2
:100780003197AF01461B570BB1DF0CC088819981AF
:10079000009711F00E948913198218821D821C8211
:1007A0001B821A82CE01DF91CF9108951F920F9282
:1007B0000FB60F9211240BB60F922F933F934F93C6
:1007C0005F936F937F938F939F93AF93BF93EF93B9
:1007D000FF938FE295E04ADEFF91EF91BF91AF91D9
:1007E0009F918F917F916F915F914F913F912F9149
:1007F0000F900BBE0F900FBE0F901F9018951F9279
:100800000F920FB60F9211240BB60F922F933F93B6
:100810004F935F936F937F938F939F93AF93BF9308
:10082000EF93FF938FE295E050DDFF91EF91BF9141
:10083000AF919F918F917F916F915F914F913F9178
:100840002F910F900BBE0F900FBE0F901F90189519
:100850001F920F920FB60F9211240BB60F922F9387
:100860003F934F935F936F937F938F939F93AF9338
:10087000BF93EF93FF938CEC95E0F8DDFF91EF9140
:10088000BF91AF919F918F917F916F915F914F91A8
:100890003F912F910F900BBE0F900FBE0F901F90A6
:1008A00018951F920F920FB60F9211240BB60F924C
:1008B0002F933F934F935F936F937F938F939F9368
:1008C000AF93BF93EF93FF938CEC95E0FEDCFF9129
:1008D000EF91BF91AF919F918F917F916F915F91B8
:1008E0004F913F912F910F900BBE0F900FBE0F9025
:1008F0001F9018952FB7F894609193047091940409
:1009000080919504909196042FBF08951F920F92A5
:100910000FB60F9211242F933F938F939F93AF9312
:10092000BF938091930490919404A0919504B09109
:1009300096043091920423E0230F2D3720F4019682
:10094000A11DB11D05C026E8230F0296A11DB11DF2
:10095000209392048093930490939404A09395041D
:10096000B09396048091970490919804A091990473
:10097000B0919A040196A11DB11D809397049093A4
:100980009804A0939904B0939A04BF91AF919F915A
:100990008F913F912F910F900FBE0F901F90189540
:1009A000FF920F931F93CF93DF931F92CDB7DEB7C4
:1009B000182FF62EF901E45CFD4F008160E0802FD6
:1009C0004983DCDD85E089DE812F87DE8F2D85DEA2
:1009D0004981842F82DE61E0802F0F90DF91CF91DB
:1009E0001F910F91FF90CACD1F93CF93DF93182FC4
:1009F000D62FFA01E45CFD4FC08160E08C2FBEDD94
:100A000082E06BDE812F69DE8D2F67DE61E08C2F47
:100A1000DF91CF911F91B2CDCF92DF92FF920F93D2
:100A20001F93CF93DF93D82F6B01C42FF901E45CA0
:100A3000FD4FF08060E08F2DA1DD82E04EDE8D2F36
:100A40004CDE8601D0E0C8018C199D098C179D07EA
:100A50002CF4F80181918F0140DEF5CF61E08F2DFC
:100A6000DF91CF911F910F91FF90DF90CF9086CDB6
:100A7000CF92DF92FF920F931F93CF93DF93D82FE4
:100A80006B01C42FF901E45CFD4FF08060E08F2D15
:100A900075DD83E022DE8D2F20DE8601D0E0C801E7
:100AA0008C199D098C179D0734F480E016DEF8013F
:100AB00081938F01F4CF61E08F2DDF91CF911F9152
:100AC0000F91FF90DF90CF9059CDEF92FF921F933F
:100AD000CF93DF9300D01F921F92CDB7DEB77C017A
:100AE000162F8091FC0440910605509107056091F6
:100AF0000805709109058823E1F0DB01CA0135E1A1
:100B0000B695A795979587953A95D1F78983DB0197
:100B1000CA017DE0B695A795979587957A95D1F707
:100B2000807E962F9370892B88608A835B834C83A9
:100B30000EC0DB01CA0123E0B695A795979587956E
:100B40002A95D1F789834295440F407E4A8380914C
:100B50000305893018F088E0809303058091030530
:100B60008D831295107F105D970145E0BE016F5F88
:100B70007F4F812F816050DF97014091030567E12E
:100B800075E0812F866048DF970148E068E0812F9B
:100B900007DF0F900F900F900F900F90DF91CF9184
:100BA0001F91FF90EF900895CF93DF938FE295E030
:100BB000B8DB8F3F2FEF920709F411C1C091D50424
:100BC000D091D604FE01EA5FFB4F808393DE6093F1
:100BD000DB047093DC048093DD049093DE048FE8E3
:100BE00091E0909305048093040480910704C13040
:100BF000D10591F4863118F084E592E004C08111AA
:100C00000BC086E892E098D28FE295E096DC1092D5
:100C1000D6041092D504E3C02196D093D604C09395
:100C2000D504282F30E02F5F3F4F2C173D070CF0E5
:100C3000D6C01092D6041092D50491E0980F46E0E9
:100C400054E0FA01C0E08E2F841B891718F48191BB
:100C5000C827F9CFF901EA5FFB4F8081C813ADC007
:100C60008091D9049091DA04892B19F481EB92E0F8
:100C700063D281E090E09093DA048093D9048CE20F
:100C800091E09093050480930404809106048B35D1
:100C9000B9F480910704853099F480910804803874
:100CA00079F480910904833859F480910A048823E7
:100CB00039F088EC92E040D281E08093E30448D29E
:100CC000809106048B3509F044C08091070485307B
:100CD00009F03FC0809108048038D9F5809109045B
:100CE0008338B9F580910A04811133C08BED92E00D
:100CF00023D280911405843060F18BED92E01CD2F8
:100D00001092E30480EE97E0A0E0B0E08093060547
:100D100090930705A0930805B093090588E0809398
:100D2000030587E0809317058EEA8093180580E21B
:100D30008093190580EC80931A0510921B05109280
:100D40001C0510921D0510921E0560E082E090E0E7
:100D5000BCDE8091060481110FC0809107048430AD
:100D600059F4809108048F3B39F48091090482374B
:100D700019F48FEE92E0E0D180910604803899F466
:100D800080910704843079F4809108048F3B59F4F2
:100D900080910904813139F480910A04811103C0E2
:100DA0008AEF92E0C9D1A6DD6093DB047093DC0486
:100DB0008093DD049093DE0412C08FE295E0BDDBEA
:100DC00082E093E086D08C2FD5D01092DA04109276
:100DD000D9048DE291E09093050480930404DF919F
:100DE000CF91089580E090E0892B19F0D1DA81113C
:100DF0001CC080E090E0892B41F080E090E0892BDE
:100E000021F00E940000811113C0B9DA811113C0D2
:100E100080E090E0892B99F080E090E0892B79F0D8
:100E20000E940000811109C008950E940000E1CFD6
:100E30000E940000EACFB8DEEBCF0C9400000895CA
:100E4000CF93DF9300D01F92CDB7DEB79A01880F02
:100E5000880F8C3008F08C5F1982662319F098E0B7
:100E60009A8301C01A821B821C8244E0BE016F5F1C
:100E70007F4FD2DD0F900F900F900F90DF91CF91A9
:100E80000895CF93DF93C7E1D5E0698970E0762FAD
:100E900066278A89682B769567957695679570930E
:100EA00016056093150580E090E00E9453102DEC2C
:100EB0003CEC4CEC50E40E94B4100E9491127093F0
:100EC0001405609313058C8980931205DF91CF91EF
:100ED0000895009761F0FC0101900020E9F7319737
:100EE000AF01481B590BBC018CEC95E0C3C980E0F5
:100EF00090E008958F929F92AF92BF920F931F93AD
:100F0000CF93DF93CDB7DEB7A1970FB6F894DEBFCE
:100F10000FBECDBF19A2423008F44AE08E010F5D2A
:100F20001F4F842E912CA12CB12CA50194010E945D
:100F30008E11E62FB901CA0101501109EA3014F4EB
:100F4000E05D01C0E95CD801EC93232B242B252B19
:100F500061F7C801BEDFA1960FB6F894DEBF0FBEE1
:100F6000CDBFDF91CF911F910F91BF90AF909F9018
:100F70008F900895CF93DF93682F70E080E090E02A
:100F800040E1B8DFEC018DED93E0A3DF8C0F9D1FF6
:100F9000DF91CF9108954F925F926F927F928F92DF
:100FA0009F92AF92BF92CF92DF92EF92FF926B012E
:100FB0007C019B01AC010E94C112882319F080EED4
:100FC00093E01AC046015701E894B7F82FEF3FEFBE
:100FD0004FE75FE7C501B4010E94C11281110FC044
:100FE0002FEF3FEF4FE75FE7C501B4010E944F10BD
:100FF00018162CF484EE93E06CDF7C018BC02FEF8D
:101000003FEF4FE75FE4C701B6010E94BD1218161B
:101010001CF488EE93E0F0CF2FEF3FEF4FE75FEC4B
:10102000C701B6010E944F1087FDF3CF20E030E0EA
:10103000A901C701B6010E944F1087FF11C0E091BE
:10104000CC05F091CD050190F081E02D6DE28CECA6
:1010500095E019955C01F7FAF094F7F8F09402C066
:10106000A12CB12C2AE037ED43EA5BE3C701B601BE
:101070000E94C0112B013C010E9491126B017C0166
:101080000E9453109B01AC01C301B2010E94BF1129
:101090002B013C014AE0C701B6012CDF7C01EA0CC0
:1010A000FB1CE091CC05F091CD050190F081E02D85
:1010B0006EE28CEC95E01995E80EF91E20E030E028
:1010C00040E251E4C301B2010E94B4102B013C0183
:1010D0000E9491124B01A12CB12C4AE0C501B40130
:1010E00009DFE80EF91EC501B401DDD79B01AC0193
:1010F000C301B2010E94BF1120E030E040E251E4A0
:101100000E94B4100E94911280E090E04AE0F2DE6A
:10111000E80EF91E8DED93E0DCDE8E0D9F1DFF9035
:10112000EF90DF90CF90BF90AF909F908F907F9087
:101130006F905F904F900895CF93DF93CADEEC01DC
:101140008DED93E0C6DE8C0F9D1FDF91CF9108954A
:1011500080911405843098F18CEE93E0EDDF80EE01
:1011600097E0A0E0B0E08093060590930705A09378
:101170000805B093090588E08093030587E0809314
:1011800017058EEA8093180580E28093190580EF99
:1011900080931A0510921B0510921C0510921D05D4
:1011A00010921E0560E082E090E08FDCA3DB60938C
:1011B000FF04709300058093010590930205089544
:1011C0004FED57E060E070E040930605509307054F
:1011D0006093080570930905E7E1F5E092E09083DC
:1011E00091E0918382831382148215821682178282
:1011F00060E082E090E069CCCF92DF92EF92FF92C4
:101200000F931F93CF93DF9300D01F921F92CDB700
:10121000DEB78C019C0145E0BE016F5F7F4F81E628
:1012200027DC8D81982F9F70F801ED5FFA4F908336
:10123000D801A759B94F86FB882780F98C9399303C
:1012400010F088E08083B801A3E0660F771FAA95AD
:10125000E1F7695E7A4F9801408186E609DC4A81B0
:10126000942F9870F801E450FB4F9083F801EE0F33
:10127000FF1FEE0FFF1F8981EA5FFA4F992331F1BB
:1012800090E0A0E0B0E035E1880F991FAA1FBB1FD6
:101290003A95D1F72B81922B2C81822B242F207E03
:1012A000C22ED12CE12CF12C5DE0CC0CDD1CEE1C0F
:1012B000FF1C5A95D1F78C299D29AE29BF2943706F
:1012C000A42B80839183A283B3831FC050E060E08E
:1012D00070E06A017B0195E0F694E794D794C79497
:1012E0009A95D1F7482F50E060E070E023E0440F7A
:1012F000551F661F771F2A95D1F74C295D296E2946
:101300007F294083518362837383980140E061E0C9
:101310008CE246DB0F900F900F900F900F90DF91B3
:10132000CF911F910F91FF90EF90DF90CF90089594
:10133000FF920F931F93CF93DF9300D01F92CDB7EF
:10134000DEB7F82E8B01AB0160E08AE24DDBA8012D
:1013500064EA89E249DBA80164E088E245DBA80190
:1013600060E080E641DB4F2D440F440F440F9801AD
:1013700068E08FE015DBA80160E080E335DBA801C1
:1013800060E080E431DBA80160E080E52DDBF090D7
:10139000FC04A8016F2D80E053DDA8016F2D81E0D2
:1013A0004FDDA8016F2D82E04BDDA8016F2D83E09A
:1013B00047DDA8016F2D84E043DDA8016F2D85E096
:1013C0003FDD19821A821B821C82980144E0BE0113
:1013D0006F5F7F4F80E220DB19821A821B821C82A2
:1013E000980144E0BE016F5F7F4F84E215DB0F90F0
:1013F0000F900F900F90DF91CF911F910F91FF9061
:10140000089590E0FC01E853FE4F2491FC01EE5753
:10141000FE4F8491882399F090E0880F991FFC017A
:10142000E859FE4FA591B491FC01E25BFE4F859116
:1014300094918FB7F894EC91E22BEC938FBF0895C1
:10144000CF93DF9300D000D0CDB7DEB7789484B5CA
:10145000826084BD84B5816084BD85B5826085BDB0
:1014600085B5816085BD80916E00816080936E003E
:101470001092810080918100826080938100809130
:1014800081008160809381008091800081608093E1
:1014900080008091B10084608093B1008091B000A1
:1014A00081608093B0008091910082608093910070
:1014B0008091910081608093910080919000816083
:1014C000809390008091A10082608093A100809120
:1014D000A10081608093A1008091A0008160809331
:1014E000A0008091210182608093210180912101DF
:1014F000816080932101809120018160809320018F
:1015000080917A00846080937A0080917A00826072
:1015100080937A0080917A00816080937A00809134
:101520007A00806880937A001092C10089E069DFB8
:1015300085E367DF8AE065DF61E08AE01FD861E06C
:1015400089E01CD888E05DDF61E088E017D888E09A
:10155000809303051092FC041FB7F89480919B04BC
:10156000811121C0E7EBF1E08491EDEFF1E094917E
:10157000E82FF0E0EE0FFF1FE859FE4FA591B49160
:10158000EC91E92321F461E085E30E94BE0285E34A
:1015900038DF8CB580618CBD8CB580648CBD84E3F4
:1015A00030DF83E32EDF80919B048F5F80939B0469
:1015B0001FBF8CB5837F8CBD8CB58F7D8CBD8CB5EA
:1015C0008C7F8CBD8DB58E7F8DBD61E070E081E03C
:1015D000AFDE62E070E080E0ABDE21E030E040E0D2
:1015E00060EE8FE0DDD922E030E040E060EE8FE099
:1015F000D7D926E040E052EC61E070E08CEC95E059
:101600000E94D10187E193E097DD26E240E855E2B0
:1016100060E070E08FE295E00E94D10181E090E00F
:101620009093FB048093FA0488EC90E0A0E0B0E093
:1016300080939C0490939D04A0939E04B0939F0478
:1016400083E090E0A0E0B0E08093DF049093E004BA
:10165000A093E104B093E2041092F5041092F40414
:1016600022242394312C64EE862E6EEF962EAA242B
:10167000AA94BA2C8091FA049091FB04892BC1F5AD
:1016800039D90091F6041091F7042091F8043091B3
:10169000F904DC01CB01801B910BA20BB30BC397A8
:1016A000A105B10528F180911405843008F100915D
:1016B000A0041091A1040115110509F08AC485E068
:1016C0007FDD18D96093F6047093F7048093F804D3
:1016D0009093F9040F5F1F4F023011050CF084C482
:1016E0001093A1040093A0043092FB042092FA040A
:1016F00022E030E041E0BE016F5F7F4F8CE2B8D95D
:10170000898180FF13C182E090E076DD80910E0533
:1017100090910F05A0911005B0911105883E97405A
:10172000A105B10509F0E6C01A8219821C821B824C
:101730001E821D8240E050E06FED73E0CE01019605
:101740000E9476031092FB041092FA0485E293E063
:10175000C0DB809129050EDC809129058D3009F4CC
:1017600098C040F48530B9F18C3081F0813009F0B7
:10177000BEC092C0813109F4B0C08C3509F473C089
:10178000803109F0B4C06DE973E0A2C060912A0510
:1017900070E0762F662780912B05682B76956795EC
:1017A0007695679580E090E07ED42DEC3CEC4CEC97
:1017B00050E4DAD4B6D670931405609313056DE245
:1017C00073E0CE0101960E94B60388E393E081DBCB
:1017D0008091140546C000912A0510E008521109B5
:1017E000B801012E000C880B990B5FD46B017C01B2
:1017F0001093A3040093A20424EF3DE741E452E4D4
:10180000BFD520E030E040E45FE31ED68AD6609387
:10181000A804C701B601BFDB8091A804873E20F071
:1018200088E08093A40402C01092A4046FE373E0E4
:10183000CE0101960E94B6038DE593E04ADBC70115
:10184000B601A9DB89E693E044DB6091A80470E06F
:1018500080E090E040E14EDB8CE793E03ADB809162
:10186000A40488DB44C060912A0570E080E090E029
:101870001CD42FEC37EF45E051E482D520E030E076
:1018800040E45FE3E1D54DD66093C9046FE373E0B4
:101890001FC06BE873E01CC060912A05661F6627B5
:1018A000661F70E080E090E000D420E030E0A90105
:1018B000F6D39091A504811104C08091A804863EBE
:1018C00010F0926101C09D7E9093A5046DEA73E0D3
:1018D000CE0101960E94B6030AC064EB73E0CE010C
:1018E00001960E94B60380912A0580931205898192
:1018F0009A810FD780910E0590910F05A091100548
:10190000B0911105893C9105A105B10509F4B9DA39
:1019100080910E0590910F05A0911005B0911105D1
:1019200080319140A105B10509F4ABDA8091F4044E
:101930009091F504019709F023C10E947A04009167
:10194000F0041091F1042091F2043091F304DC01D1
:10195000CB01801B910BA20BB30B0B97A105B1051B
:1019600008F457C00E947A046093F0047093F10465
:101970008093F2049093F30486E193E0A0E0B0E05A
:101980008093060590930705A0930805B093090579
:1019900088E08093030585E08093170582E68093B5
:1019A0001805809113058093190580911405809383
:1019B0001A05E0911505F0911605CF0165E070E07C
:1019C000E4D5262F60931B05CF0163E970E0DDD5D8
:1019D000FB01BC964091A2045091A30436ED349FC4
:1019E000C001359F900D112468E17CEFE2D5CF0155
:1019F000860F971F64EB71E0C8D5862F8195809381
:101A00001C0510921D0520931E0560E081E090E00A
:101A10005CD80E947A040091EC041091ED042091AE
:101A2000EE043091EF04DC01CB01801B910BA20B83
:101A3000B30B0B97A105B10598F10E947A0460934E
:101A4000EC047093ED048093EE049093EF0485E42E
:101A500095E0A0E0B0E08093060590930705A09381
:101A60000805B093090588E0809303058091A504DB
:101A70008093170510921805109219058091A404FF
:101A800080931A058091C90480931B0510921C0550
:101A900010921D0510921E0562E081E090E015D8BD
:101AA0000E947A040091E8041091E9042091EA046C
:101AB0003091EB04DC01CB01801B910BA20BB30B2B
:101AC0000B97A105B10508F45BC00E947A046093EE
:101AD000E8047093E9048093EA049093EB0489E2AC
:101AE00093E0A0E0B0E08093060590930705A093F3
:101AF0000805B093090588E0809303050091A904C7
:101B00001091AA04F801E15CFD4F808180931705D4
:101B10008091A8048093180582EB8093190589E1D0
:101B200080931A0510921B058091120580931C0565
:101B300010921D0510921E0561E081E090E00E9468
:101B400065058091A6049091A704019688309105BF
:101B500029F09093A7048093A60412C01092A704C2
:101B60001092A6040F5F1F4F033011052CF4109341
:101B7000AA040093A90404C01092AA041092A90414
:101B80000E947A040091E4041091E5042091E60497
:101B90003091E704DC01CB01801B910BA20BB30B4E
:101BA000893C9105A105B10508F4DFC060E08BE335
:101BB0000E94BE0280E70E946D03F82E80E00E9422
:101BC0006D03082F61E08BE30E94BE0210E01F2925
:101BD00013701093CD040093CC048091C5049091B0
:101BE000C6046AE070E0E5D47C01892B29F41092E8
:101BF000C6041092C50408C099E0E916F10421F466
:101C00003092C4042092C304C701880F991FDC01DD
:101C1000A555BB4F6D016D917C91072E000C880B73
:101C2000990B43D29B01AC016091BF047091C00439
:101C30008091C1049091C204A2D32B013C01F60112
:101C400011830083B801110F880B990B2ED29B01D1
:101C5000AC01C301B20194D32B013C016093BF04DA
:101C60007093C0048093C1049093C2048091C30414
:101C70009091C404892B29F020E030E040E251E447
:101C80000AC0B7016F5F7F4F072E000C880B990BBE
:101C90000CD29B01AC01C301B201D6D32091C50483
:101CA0003091C6042F5F3F4F3093C6042093C50484
:101CB00033D47093CB046093CA048B01072E000CBD
:101CC000220B330BA9019801673272408CF0275424
:101CD000334041095109AEE2B0E016D3A5019401A9
:101CE000F7D2DA01C9018C599F4FAF4FBF4F12C0D5
:101CF0002B52324041095109A5E3B0E005D32AEC4B
:101D00003EEF4FEF5FEFE4D2DA01C9018D569F4FEE
:101D1000AF4FBF4F8093C9048091C904823828F027
:101D20001092C8041092C70415C0883718F080E1DB
:101D300090E00CC08E3618F080E290E007C0843648
:101D400018F080E390E002C080E490E09093C80433
:101D50008093C7040E947A046093E4047093E504BE
:101D60008093E6049093E70413C021E030E041E063
:101D7000BE016F5F7F4F8CE20E943805898180FF32
:101D800007C03092F5042092F40481E090E034DA48
:101D90008091E3048823F1F00E947A040091FF040B
:101DA000109100052091010530910205DC01CB0165
:101DB000801B910BA20BB30B0091DF041091E00488
:101DC0002091E1043091E204081719072A073B0724
:101DD00008F4BED90E947A040091DB041091DC045F
:101DE0002091DD043091DE04DC01CB01801B910BDE
:101DF000A20BB30B0297A105B105D8F18091D904CC
:101E00009091DA040197A9F58091D7049091D804B4
:101E1000019779F58091D5049091D604892B49F5E5
:101E20004091250250E04E5F5F4F64E272E08FE226
:101E300095E00E943A018091CE049091CF040197E1
:101E400079F44091130250E04E5F5F4F62E172E01F
:101E50008FE295E00E943A011092CF041092CE04D6
:101E60008091D40481110E9460031092D8041092D2
:101E7000D7040E947A040091DB041091DC042091C5
:101E8000DD043091DE04DC01CB01801B910BA20B41
:101E9000B30B0297A105B10588F08091D904909108
:101EA000DA04019759F48091D404882339F08091A1
:101EB000D5049091D604892B09F49BC00E947A0422
:101EC0000091DB041091DC042091DD043091DE04EC
:101ED000DC01CB01801B910BA20BB30B8093D004D0
:101EE0009093D104A093D204B093D30481389E4E32
:101EF000A643B10508F46AC081EC93E01DD960E007
:101F000088E00E94BE028FE295E00E949D02E0916F
:101F10004105F091420580818F7E8083E0914105EB
:101F2000F09142058081877F8083E0914105F091A7
:101F3000420580818F778083E0914105F0914205D1
:101F400080818F7D8083809149058093480580E161
:101F500058DA60E080E10E94BE020E943B032B0140
:101F60003C0188EEC82E83E0D82EE12CF12C0E9493
:101F70003B03DC01CB0184199509A609B709883E0A
:101F80009340A105B10558F031E0C31AD108E1082A
:101F9000F10848EE440E43E0541E611C711CC1144C
:101FA000D104E104F10419F726E240E855E260E0CB
:101FB00070E08FE295E00E94D1018FE295E00E94EF
:101FC000B301892BD1F380ED93E0B6D80E94F206DD
:101FD00051CB0130110511F481E072CB02301105B3
:101FE00009F06FCB8CE56CCB1092A1041092A00489
:101FF0007BCB0E94600362CFEFE2F5E01382128296
:1020000048EE53E060E070E0448355836683778355
:1020100086E492E09183808325ED30E03587248744
:1020200024ED30E03787268720ED30E0318B208BA0
:1020300021ED30E0338B228B22ED30E0358B248B89
:1020400026ED30E0378B268B118E128E138E148E78
:10205000ECECF5E013821282448355836683778328
:102060009183808385EC90E09587848784EC90E071
:102070009787868780EC90E0918B808B81EC90E055
:10208000938B828B82EC90E0958B848B86EC90E036
:10209000978B868B118E128E138E148E089540D0DE
:1020A00008F481E00895E89409C097FB3EF4909508
:1020B0008095709561957F4F8F4F9F4F9923A9F021
:1020C000F92F96E9BB279395F695879577956795B0
:1020D000B795F111F8CFFAF4BB0F11F460FF1BC0F4
:1020E0006F5F7F4F8F4F9F4F16C0882311F096E987
:1020F00011C0772321F09EE8872F762F05C0662335
:1021000071F096E8862F70E060E02AF09A95660FED
:10211000771F881FDAF7880F9695879597F90895A6
:10212000990F0008550FAA0BE0E8FEEF16161706E8
:10213000E807F907C0F012161306E407F50798F050
:10214000621B730B840B950B39F40A2661F0232B69
:10215000242B252B21F408950A2609F4A140A695E5
:102160008FEF811D811D08950BD078C069D028F0B4
:102170006ED018F0952309F05AC05FC01124A2C098
:102180007ED0A0F3959FD1F3950F50E0551F629F2D
:10219000F001729FBB27F00DB11D639FAA27F00DC0
:1021A000B11DAA1F649F6627B00DA11D661F829FE7
:1021B0002227B00DA11D621F739FB00DA11D621FCC
:1021C000839FA00D611D221F749F3327A00D611DE9
:1021D000231F849F600D211D822F762F6A2F1124CB
:1021E0009F5750408AF0E1F088234AF0EE0FFF1F1E
:1021F000BB1F661F771F881F91505040A9F79E3F55
:10220000510570F014C05EC05F3FECF3983EDCF304
:10221000869577956795B795F795E7959F5FC1F791
:10222000FE2B880F911D9695879597F9089597F93C
:102230009F6780E870E060E008959FEF80EC08956C
:1022400000240A9416161706180609060895002495
:102250000A9412161306140605060895092E03940F
:10226000000C11F4882352F0BB0F40F4BF2B11F483
:1022700060FF04C06F5F7F4F8F4F9F4F089557FDE2
:102280009058440F551F59F05F3F71F04795880FE4
:1022900097FB991F61F09F3F79F08795089512167B
:1022A00013061406551FF2CF4695F1DF08C0161627
:1022B00017061806991FF1CF8695710561050894D8
:1022C0000895E894BB2766277727CB0197F90895EF
:1022D000052E97FB16F400940FD057FD05D01ED0A5
:1022E00007FC02D046F408C05095409530952195E2
:1022F0003F4F4F4F5F4F0895909580957095619532
:102300007F4F8F4F9F4F08952BD0A59F900DB49F67
:10231000900DA49F800D911D11240895A1E21A2E05
:10232000AA1BBB1BFD010DC0AA1FBB1FEE1FFF1F79
:10233000A217B307E407F50720F0A21BB30BE40BC9
:10234000F50B661F771F881F991F1A9469F7609510
:102350007095809590959B01AC01BD01CF010895CA
:10236000A29FB001B39FC001A39F700D811D1124D6
:10237000911DB29F700D811D1124911D089550581B
:10238000BB27AA270ED06ACF5BDF30F060DF20F0DA
:1023900031F49F3F11F41EF450CF0EF4E095E7FBAB
:1023A00046CFE92F6CDF80F3BA1762077307840703
:1023B000950718F071F49EF584CF0EF4E0950B2E7E
:1023C000BA2FA02D0B01B90190010C01CA01A00187
:1023D0001124FF27591B99F0593F50F4503E68F1E2
:1023E0001A16F040A22F232F342F4427585FF3CF23
:1023F000469537952795A795F0405395C9F77EF4F4
:102400001F16BA0B620B730B840BBAF09150A1F03C
:10241000FF0FBB1F661F771F881FC2F70EC0BA0FC2
:10242000621F731F841F48F4879577956795B7954A
:10243000F7959E3F08F0B3CF9395880F08F0992742
:10244000EE0F9795879508950CD008CF00DF40F0E8
:10245000F7DE30F021F45F3F19F0E9CE511132CFB1
:10246000ECCE0DDF98F39923C9F35523B1F3951BF7
:10247000550BBB27AA2762177307840738F09F5FA5
:102480005F4F220F331F441FAA1FA9F333D00E2E14
:102490003AF0E0E830D091505040E695001CCAF781
:1024A00029D0FE2F27D0660F771F881FBB1F261746
:1024B00037074807AB07B0E809F0BB0B802DBF0119
:1024C000FF2793585F4F2AF09E3F510568F0AFCE2B
:1024D000F9CE5F3FECF3983EDCF3869577956795F0
:1024E000B795F7959F5FC9F7880F911D96958795CA
:1024F00097F90895E1E0660F771F881FBB1F6217E9
:1025000073078407BA0720F0621B730B840BBA0BA6
:10251000EE1F88F7E095089504D06894B111D2CEEB
:102520000895B5DE88F09F5790F0B92F9927B751DD
:10253000A0F0D1F0660F771F881F991F1AF0BA9587
:10254000C9F712C0B13081F0BCDEB1E00895B9CE58
:10255000672F782F8827B85F39F0B93FCCF386957D
:1025600077956795B395D9F73EF4909580957095DA
:1025700061957F4F8F4F9F4F0895D2DD08F48FEF05
:102580000895CEDD880B990B0895AA1BBB1B51E162
:1025900007C0AA1FBB1FA617B70710F0A61BB70BD3
:1025A000881F991F5A95A9F780959095BC01CD0178
:1025B000089597FB072E16F4009406D077FD08D0F7
:1025C000E4DF07FC05D03EF4909581959F4F089578
:1025D000709561957F4F0895EE0FFF1F881F8BBF89
:1025E0000790F691E02D1994CF93DF9382309105F7
:1025F00010F482E090E0E0916E06F0916F0620E02A
:1026000030E0C0E0D0E0309711F1408151814817AF
:102610005907C0F04817590761F4828193812097C8
:1026200019F09B838A832BC090936F0680936E066C
:1026300026C02115310519F04217530718F49A01E5
:10264000BE01DF01EF010280F381E02DDCCF211517
:10265000310509F1281B390B2430310590F412960D
:102660008D919C9113976115710521F0FB01938366
:10267000828304C090936F0680936E06FD013296AC
:1026800044C0FD01E20FF31F819391932250310961
:102690002D933C933AC020916C0630916D06232B0C
:1026A00041F4209138023091390230936D06209325
:1026B0006C0620913602309137022115310541F424
:1026C0002DB73EB740913A0250913B02241B350B87
:1026D000E0916C06F0916D06E217F307A0F42E1B53
:1026E0003F0B2817390778F0AC014E5F5F4F241776
:1026F000350748F04E0F5F1F50936D0640936C06F0
:102700008193919302C0E0E0F0E0CF01DF91CF919F
:1027100008950F931F93CF93DF93009709F48CC014
:10272000FC0132971382128200916E0610916F069F
:102730000115110581F420813181820F931F2091B1
:102740006C0630916D062817390779F5F0936D0600
:10275000E0936C0671C0D80140E050E0AE17BF07AF
:1027600050F412962D913C911397AD01211531052E
:1027700009F1D901F3CF9D01DA013383228360810E
:102780007181860F971F8217930769F4EC012881E6
:102790003981260F371F2E5F3F4F318320838A8177
:1027A0009B8193838283452B29F4F0936F06E093FA
:1027B0006E0642C01396FC93EE931297ED01499179
:1027C00059919E01240F351FE217F30771F48081A0
:1027D0009181840F951F029611969C938E9382810E
:1027E000938113969C938E931297E0E0F0E0D801CA
:1027F00012968D919C911397009719F0F8018C0116
:10280000F6CF8D919C9198012E5F3F4F820F931FC1
:1028100020916C0630916D062817390769F43097BE
:1028200029F410926F0610926E0602C01382128273
:1028300010936D0600936C06DF91CF911F910F915D
:1028400008956F927F928F929F92AF92BF92CF9294
:10285000DF92EF92FF920F931F93CF93DF93EC01E0
:10286000009781F4CB01DF91CF911F910F91FF90E1
:10287000EF90DF90CF90BF90AF909F908F907F9020
:102880006F90B2CEFC01E60FF71F9C012250310978
:10289000E217F30708F4A8C0D9010D911C91119714
:1028A00006171707A8F00530110508F49BC0C801EA
:1028B00004978617970708F495C002501109061B64
:1028C000170B019311936D937C93CF0122DF8AC084
:1028D0005B01A01AB10A4C01800E911EA0916E06F8
:1028E000B0916F0640E050E0E12CF12C109709F414
:1028F0004AC0A815B905D1F56D907C901197630178
:1029000082E0C80ED11CCA14DB0480F1A3014A196D
:102910005B096A0182E0C80ED11C1296BC90129726
:102920001396AC91B5E0CB16D10440F0B282A383EC
:1029300051834083D9016D937C930AC00E5F1F4F72
:10294000C301800F911FF90191838083EB2DFA2F32
:10295000E114F10431F0D7011396FC93EE93129732
:1029600041C0F0936F06E0936E063CC08D919C9140
:1029700011974817590708F4AC017D0112960D9084
:10298000BC91A02DB3CF80916C0690916D068815F7
:102990009905E1F446175707C8F4809136029091E3
:1029A0003702009741F48DB79EB740913A0250919B
:1029B0003B02841B950BE817F907B0F4F0936D0602
:1029C000E0936C06F901718360830CC0CB010CDECF
:1029D0007C01009749F0A801BE011BD0CE0199DE11
:1029E000C70104C0CE0102C080E090E0DF91CF912A
:1029F0001F910F91FF90EF90DF90CF90BF90AF901D
:102A00009F908F907F906F90089581E090E0F89470
:102A100010C0FB01DC0102C001900D9241505040FA
:102A2000D8F70895FB01DC0101900D920020E1F739
:062A30000895F894FFCFA9
:102A3600C810802342304461756768747279191929
:102A46001930180A68390002003F000701FF00002C
:102A560000000000180A68390002003F000701FF65
:102A660000000000000000007006800000090A1146
:102A760080D90000000057023A0182019D02B3018D
:102A86009101A5012069627573206A756E6B206CD1
:102A9600656E67746820647572696E6720696E6911
:102AA6007469616C697A696E6720736F2073746FDD
:102AB6007070696E67002069627573207A65726F3F
:102AC600206C656E67746820696E697469616C69EB
:102AD6007A696E6720736F2073746F7070696E67A2
:102AE600002069627573206E6F7720696E6974695C
:102AF600616C697A6564200069627573206D65731F
:102B060073616765204143206F6E006962757320AB
:102B16006D657373616765204143206F6666006368
:102B26006172206F6E2F6F666600696B65206F6637
:102B36006600206962757320435243206661696CA2
:102B4600204352433D20005049445F43414E5F5667
:102B5600303037630064617461203D2000454E4784
:102B6600494E455F52504D2072706D203D200065E4
:102B76006E67696E6520636F6F6C616E7420746535
:102B86006D7020286465674329203D200074656DBB
:102B96007020284329203D200020424D57205661B1
:102BA6006C75652C20486578203D20002054656DA5
:102BB60070206C69676874203D200056454849437B
:102BC6004C455F5350454544206B6D20004D4146B2
:102BD6005F53454E534F5220672F7320004D494C8B
:102BE600203D20005448524F54544C452025252062
:102BF600004B627573207368757420646F776E007E
:102C06004B6275732073746172746564000D0A00FB
:102C16006E616E00696E66006F7666004143206FD6
:102C26006E2063616E206D657373616765207365E1
:042C36006E740000B8
:00000001FF
